{
  "contractName": "AbstractBalance",
  "abi": [
    {
      "constant": true,
      "inputs": [],
      "name": "balance",
      "outputs": [
        {
          "name": "owed",
          "type": "uint256"
        },
        {
          "name": "total",
          "type": "uint256"
        },
        {
          "name": "completed",
          "type": "uint256"
        },
        {
          "name": "paid",
          "type": "uint256"
        }
      ],
      "payable": false,
      "stateMutability": "view",
      "type": "function"
    },
    {
      "constant": false,
      "inputs": [
        {
          "name": "_amount",
          "type": "uint256"
        }
      ],
      "name": "allocateFunds",
      "outputs": [
        {
          "name": "",
          "type": "bool"
        }
      ],
      "payable": false,
      "stateMutability": "nonpayable",
      "type": "function"
    },
    {
      "constant": false,
      "inputs": [
        {
          "name": "_amount",
          "type": "uint256"
        }
      ],
      "name": "pay",
      "outputs": [
        {
          "name": "",
          "type": "bool"
        }
      ],
      "payable": false,
      "stateMutability": "nonpayable",
      "type": "function"
    },
    {
      "constant": false,
      "inputs": [
        {
          "name": "_amount",
          "type": "uint256"
        }
      ],
      "name": "work",
      "outputs": [
        {
          "name": "",
          "type": "bool"
        }
      ],
      "payable": false,
      "stateMutability": "nonpayable",
      "type": "function"
    }
  ],
  "bytecode": "0x6060604052341561000f57600080fd5b61025d8061001e6000396000f300606060405260043610610062576000357c0100000000000000000000000000000000000000000000000000000000900463ffffffff1680635858d16114610067578063b69ef8a8146100a2578063c290d691146100e0578063c9f8cc671461011b575b600080fd5b341561007257600080fd5b6100886004808035906020019091905050610156565b604051808215151515815260200191505060405180910390f35b34156100ad57600080fd5b6100b56101af565b6040518085815260200184815260200183815260200182815260200194505050505060405180910390f35b34156100eb57600080fd5b61010160048080359060200190919050506101cd565b604051808215151515815260200191505060405180910390f35b341561012657600080fd5b61013c6004808035906020019091905050610213565b604051808215151515815260200191505060405180910390f35b6000806001015482111561016d57600090506101aa565b8160006001016000828254039250508190555081600080016000828254019250508190555081600060020160008282540192505081905550600190505b919050565b60008060000154908060010154908060020154908060030154905084565b600080600001548211156101e4576000905061020e565b81600080016000828254039250508190555081600060030160008282540192505081905550600190505b919050565b600081600060010160008282540192505081905550600190509190505600a165627a7a72305820d70da45f47c4f4cd496549662b78b8d15a130e9c37077b5038b3384b46218e490029",
  "source": "pragma solidity ^0.4.19;\n\ncontract AbstractBalance {\n  struct Balance {\n    uint owed;\n    uint total;\n    uint completed;\n    uint paid;\n  }\n\n  Balance public balance;\n\n  /**\n   * Allocate funds by incrementing the total\n   *\n   * Used to increase the total amount of funds available for the Marketplace or Pool \n   * @param _amount The amount of funds to allocate\n   * @return bool Stub for now, but will return true / false when actual funds are used\n   */\n  function allocateFunds(uint _amount) public returns (bool) {\n    // Allocate market funds\n    balance.total += _amount;\n    return true;\n  }\n\n  /**\n   * Payout\n   *\n   * Payout and rebalance the accounts for the Marketplace or Pool\n   * @param _amount The amount of funds to allocate\n   * @return bool Stub for now, but will return true / false when actual funds are used\n   */\n  function pay(uint _amount) public returns (bool) {\n    if (_amount > balance.owed) { return false; }\n\n    balance.owed -= _amount;\n    balance.paid += _amount;\n\n    return true;\n  }\n\n  /**\n   * Work\n   *\n   * Allocates work amount for work that has been calculated for a node\n   * @param _amount The amount of funds to allocate\n   * @return bool Stub for now, but will return true / false when actual funds are used\n   */\n  function work(uint _amount) public returns (bool) {\n    if (_amount > balance.total) { return false; }\n\n    balance.total -= _amount;\n    balance.owed += _amount;\n    balance.completed += _amount;\n\n    return true;\n  }\n}\n",
  "sourcePath": "/home/nate/Developer/projects/gladius-contracts/contracts/AbstractBalance.sol",
  "compiler": {
    "name": "solc",
    "version": "0.4.19+commit.c4cbbb05.Emscripten.clang"
  },
  "schemaVersion": "1.0.1",
  "updatedAt": "2018-03-23T20:05:36.334Z"
}