{
  "contractName": "ClientFactory",
  "abi": [
    {
      "constant": false,
      "inputs": [],
      "name": "createClient",
      "outputs": [
        {
          "name": "",
          "type": "address"
        }
      ],
      "payable": false,
      "stateMutability": "nonpayable",
      "type": "function"
    },
    {
      "constant": true,
      "inputs": [],
      "name": "getClientAddress",
      "outputs": [
        {
          "name": "",
          "type": "address"
        }
      ],
      "payable": false,
      "stateMutability": "view",
      "type": "function"
    },
    {
      "constant": true,
      "inputs": [],
      "name": "getClientCount",
      "outputs": [
        {
          "name": "",
          "type": "uint256"
        }
      ],
      "payable": false,
      "stateMutability": "view",
      "type": "function"
    }
  ],
  "bytecode": "0x60606040526000600155341561001457600080fd5b610d96806100236000396000f300606060405260043610610057576000357c0100000000000000000000000000000000000000000000000000000000900463ffffffff1680635a81018a1461005c5780639ea6b4f414610085578063cdbf6aeb146100da575b600080fd5b341561006757600080fd5b61006f61012f565b6040518082815260200191505060405180910390f35b341561009057600080fd5b610098610139565b604051808273ffffffffffffffffffffffffffffffffffffffff1673ffffffffffffffffffffffffffffffffffffffff16815260200191505060405180910390f35b34156100e557600080fd5b6100ed61019f565b604051808273ffffffffffffffffffffffffffffffffffffffff1673ffffffffffffffffffffffffffffffffffffffff16815260200191505060405180910390f35b6000600154905090565b60008060003373ffffffffffffffffffffffffffffffffffffffff1673ffffffffffffffffffffffffffffffffffffffff16815260200190815260200160002060009054906101000a900473ffffffffffffffffffffffffffffffffffffffff16905090565b600080336101ab61028d565b808273ffffffffffffffffffffffffffffffffffffffff1673ffffffffffffffffffffffffffffffffffffffff168152602001915050604051809103906000f08015156101f757600080fd5b9050806000803373ffffffffffffffffffffffffffffffffffffffff1673ffffffffffffffffffffffffffffffffffffffff16815260200190815260200160002060006101000a81548173ffffffffffffffffffffffffffffffffffffffff021916908373ffffffffffffffffffffffffffffffffffffffff160217905550600180600082825401925050819055508091505090565b604051610acd8061029e8339019056006060604052341561000f57600080fd5b604051602080610acd8339810160405280805190602001909190505080600160006101000a81548173ffffffffffffffffffffffffffffffffffffffff021916908373ffffffffffffffffffffffffffffffffffffffff16021790555050610a518061007c6000396000f300606060405260043610610083576000357c0100000000000000000000000000000000000000000000000000000000900463ffffffff16806313d21cdf1461008857806317bc269b1461013a57806330ccebb51461015d5780633bc5de30146101aa57806347064d6a146102385780634b8aad6014610295578063b5eca7ec14610311575b600080fd5b341561009357600080fd5b6100bf600480803573ffffffffffffffffffffffffffffffffffffffff1690602001909190505061038d565b6040518080602001828103825283818151815260200191508051906020019080838360005b838110156100ff5780820151818401526020810190506100e4565b50505050905090810190601f16801561012c5780820380516001836020036101000a031916815260200191505b509250505060405180910390f35b341561014557600080fd5b61015b6004808035906020019091905050610474565b005b341561016857600080fd5b610194600480803573ffffffffffffffffffffffffffffffffffffffff169060200190919050506104bb565b6040518082815260200191505060405180910390f35b34156101b557600080fd5b6101bd610596565b6040518080602001828103825283818151815260200191508051906020019080838360005b838110156101fd5780820151818401526020810190506101e2565b50505050905090810190601f16801561022a5780820380516001836020036101000a031916815260200191505b509250505060405180910390f35b341561024357600080fd5b610293600480803590602001908201803590602001908080601f0160208091040260200160405190810160405280939291908181526020018383808284378201915050505050509190505061063e565b005b34156102a057600080fd5b61030f600480803573ffffffffffffffffffffffffffffffffffffffff1690602001909190803590602001908201803590602001908080601f016020809104026020016040519081016040528093929190818152602001838380828437820191505050505050919050506106b4565b005b341561031c57600080fd5b61038b600480803573ffffffffffffffffffffffffffffffffffffffff1690602001909190803590602001908201803590602001908080601f01602080910402602001604051908101604052809392919081815260200183838082843782019150505050505091905050610768565b005b610395610940565b600360008373ffffffffffffffffffffffffffffffffffffffff1673ffffffffffffffffffffffffffffffffffffffff1681526020019081526020016000208054600181600116156101000203166002900480601f0160208091040260200160405190810160405280929190818152602001828054600181600116156101000203166002900480156104685780601f1061043d57610100808354040283529160200191610468565b820191906000526020600020905b81548152906001019060200180831161044b57829003601f168201915b50505050509050919050565b80600260003373ffffffffffffffffffffffffffffffffffffffff1673ffffffffffffffffffffffffffffffffffffffff1681526020019081526020016000208190555050565b60008173ffffffffffffffffffffffffffffffffffffffff163373ffffffffffffffffffffffffffffffffffffffff1614806105445750600160009054906101000a900473ffffffffffffffffffffffffffffffffffffffff1673ffffffffffffffffffffffffffffffffffffffff163373ffffffffffffffffffffffffffffffffffffffff16145b151561054f57600080fd5b600260008373ffffffffffffffffffffffffffffffffffffffff1673ffffffffffffffffffffffffffffffffffffffff168152602001908152602001600020549050919050565b61059e610940565b60008054600181600116156101000203166002900480601f0160208091040260200160405190810160405280929190818152602001828054600181600116156101000203166002900480156106345780601f1061060957610100808354040283529160200191610634565b820191906000526020600020905b81548152906001019060200180831161061757829003601f168201915b5050505050905090565b600160009054906101000a900473ffffffffffffffffffffffffffffffffffffffff1673ffffffffffffffffffffffffffffffffffffffff163373ffffffffffffffffffffffffffffffffffffffff1614151561069a57600080fd5b80600090805190602001906106b0929190610954565b5050565b600160009054906101000a900473ffffffffffffffffffffffffffffffffffffffff1673ffffffffffffffffffffffffffffffffffffffff163373ffffffffffffffffffffffffffffffffffffffff1614151561071057600080fd5b80600360008473ffffffffffffffffffffffffffffffffffffffff1673ffffffffffffffffffffffffffffffffffffffff1681526020019081526020016000209080519060200190610763929190610954565b505050565b6000600160009054906101000a900473ffffffffffffffffffffffffffffffffffffffff1673ffffffffffffffffffffffffffffffffffffffff163373ffffffffffffffffffffffffffffffffffffffff161415156107c657600080fd5b82905060028060008573ffffffffffffffffffffffffffffffffffffffff1673ffffffffffffffffffffffffffffffffffffffff1681526020019081526020016000208190555081600360008573ffffffffffffffffffffffffffffffffffffffff1673ffffffffffffffffffffffffffffffffffffffff1681526020019081526020016000209080519060200190610860929190610954565b506004805480600101828161087591906109d4565b9160005260206000209001600085909190916101000a81548173ffffffffffffffffffffffffffffffffffffffff021916908373ffffffffffffffffffffffffffffffffffffffff160217905550508073ffffffffffffffffffffffffffffffffffffffff1663533aa4746040518163ffffffff167c0100000000000000000000000000000000000000000000000000000000028152600401600060405180830381600087803b151561092757600080fd5b6102c65a03f1151561093857600080fd5b505050505050565b602060405190810160405280600081525090565b828054600181600116156101000203166002900490600052602060002090601f016020900481019282601f1061099557805160ff19168380011785556109c3565b828001600101855582156109c3579182015b828111156109c25782518255916020019190600101906109a7565b5b5090506109d09190610a00565b5090565b8154818355818115116109fb578183600052602060002091820191016109fa9190610a00565b5b505050565b610a2291905b80821115610a1e576000816000905550600101610a06565b5090565b905600a165627a7a72305820e9dfb7d0afe63752abfe68d428fc8543e29aedd60384df99f8eefaa872f9992c0029a165627a7a72305820ef00dd6a87676e5231d9d346b7181477881d06a5e0114d85b144a49729272eaa0029",
  "source": "pragma solidity ^0.4.19;\n\nimport \"./Client.sol\";\n\ncontract ClientFactory {\n\n  mapping(address=>address) ownerToClient;\n  uint256 totalClients = 0;\n\n  /**\n   * Create a new node.\n   *\n   * Instantiate a new Client and set the sender as the owner\n   * @return address Address to the new Client\n   */\n   function createClient() public returns(address) {\n     Client client = new Client(msg.sender);\n     ownerToClient[msg.sender] = address(client);\n     totalClients += 1;\n\n     return address(client);\n   }\n\n   function getClientAddress() public view returns(address) {\n     return ownerToClient[msg.sender];\n   }\n\n   function getClientCount() public view returns(uint256){\n     return totalClients;\n   }\n}\n",
  "sourcePath": "/home/nate/Developer/projects/gladius-contracts/contracts/ClientFactory.sol",
  "compiler": {
    "name": "solc",
    "version": "0.4.19+commit.c4cbbb05.Emscripten.clang"
  },
  "schemaVersion": "1.0.1",
  "updatedAt": "2018-03-23T20:05:36.335Z"
}