{
  "contractName": "Client",
  "abi": [
    {
      "inputs": [
        {
          "name": "_owner",
          "type": "address"
        }
      ],
      "payable": false,
      "stateMutability": "nonpayable",
      "type": "constructor"
    },
    {
      "constant": false,
      "inputs": [
        {
          "name": "_status",
          "type": "int256"
        }
      ],
      "name": "setStatus",
      "outputs": [],
      "payable": false,
      "stateMutability": "nonpayable",
      "type": "function"
    },
    {
      "constant": true,
      "inputs": [
        {
          "name": "_pool",
          "type": "address"
        }
      ],
      "name": "getStatus",
      "outputs": [
        {
          "name": "",
          "type": "int256"
        }
      ],
      "payable": false,
      "stateMutability": "view",
      "type": "function"
    },
    {
      "constant": true,
      "inputs": [],
      "name": "getData",
      "outputs": [
        {
          "name": "",
          "type": "string"
        }
      ],
      "payable": false,
      "stateMutability": "view",
      "type": "function"
    },
    {
      "constant": true,
      "inputs": [
        {
          "name": "_pool",
          "type": "address"
        }
      ],
      "name": "getPoolData",
      "outputs": [
        {
          "name": "",
          "type": "string"
        }
      ],
      "payable": false,
      "stateMutability": "view",
      "type": "function"
    },
    {
      "constant": false,
      "inputs": [
        {
          "name": "_data",
          "type": "string"
        }
      ],
      "name": "setData",
      "outputs": [],
      "payable": false,
      "stateMutability": "nonpayable",
      "type": "function"
    },
    {
      "constant": false,
      "inputs": [
        {
          "name": "_pool",
          "type": "address"
        },
        {
          "name": "_data",
          "type": "string"
        }
      ],
      "name": "changePoolData",
      "outputs": [],
      "payable": false,
      "stateMutability": "nonpayable",
      "type": "function"
    },
    {
      "constant": false,
      "inputs": [
        {
          "name": "_pool",
          "type": "address"
        },
        {
          "name": "_data",
          "type": "string"
        }
      ],
      "name": "applyToPool",
      "outputs": [],
      "payable": false,
      "stateMutability": "nonpayable",
      "type": "function"
    }
  ],
  "bytecode": "0x6060604052341561000f57600080fd5b604051602080610b1c8339810160405280805190602001909190505080600160006101000a81548173ffffffffffffffffffffffffffffffffffffffff021916908373ffffffffffffffffffffffffffffffffffffffff16021790555050610aa08061007c6000396000f300606060405260043610610083576000357c0100000000000000000000000000000000000000000000000000000000900463ffffffff16806313d21cdf1461008857806317bc269b1461013a57806330ccebb51461015d5780633bc5de30146101aa57806347064d6a146102385780634b8aad6014610295578063b5eca7ec14610311575b600080fd5b341561009357600080fd5b6100bf600480803573ffffffffffffffffffffffffffffffffffffffff1690602001909190505061038d565b6040518080602001828103825283818151815260200191508051906020019080838360005b838110156100ff5780820151818401526020810190506100e4565b50505050905090810190601f16801561012c5780820380516001836020036101000a031916815260200191505b509250505060405180910390f35b341561014557600080fd5b61015b6004808035906020019091905050610474565b005b341561016857600080fd5b610194600480803573ffffffffffffffffffffffffffffffffffffffff169060200190919050506104bb565b6040518082815260200191505060405180910390f35b34156101b557600080fd5b6101bd610596565b6040518080602001828103825283818151815260200191508051906020019080838360005b838110156101fd5780820151818401526020810190506101e2565b50505050905090810190601f16801561022a5780820380516001836020036101000a031916815260200191505b509250505060405180910390f35b341561024357600080fd5b610293600480803590602001908201803590602001908080601f0160208091040260200160405190810160405280939291908181526020018383808284378201915050505050509190505061063e565b005b34156102a057600080fd5b61030f600480803573ffffffffffffffffffffffffffffffffffffffff1690602001909190803590602001908201803590602001908080601f016020809104026020016040519081016040528093929190818152602001838380828437820191505050505050919050506106b4565b005b341561031c57600080fd5b61038b600480803573ffffffffffffffffffffffffffffffffffffffff1690602001909190803590602001908201803590602001908080601f01602080910402602001604051908101604052809392919081815260200183838082843782019150505050505091905050610768565b005b61039561098f565b600360008373ffffffffffffffffffffffffffffffffffffffff1673ffffffffffffffffffffffffffffffffffffffff1681526020019081526020016000208054600181600116156101000203166002900480601f0160208091040260200160405190810160405280929190818152602001828054600181600116156101000203166002900480156104685780601f1061043d57610100808354040283529160200191610468565b820191906000526020600020905b81548152906001019060200180831161044b57829003601f168201915b50505050509050919050565b80600260003373ffffffffffffffffffffffffffffffffffffffff1673ffffffffffffffffffffffffffffffffffffffff1681526020019081526020016000208190555050565b60008173ffffffffffffffffffffffffffffffffffffffff163373ffffffffffffffffffffffffffffffffffffffff1614806105445750600160009054906101000a900473ffffffffffffffffffffffffffffffffffffffff1673ffffffffffffffffffffffffffffffffffffffff163373ffffffffffffffffffffffffffffffffffffffff16145b151561054f57600080fd5b600260008373ffffffffffffffffffffffffffffffffffffffff1673ffffffffffffffffffffffffffffffffffffffff168152602001908152602001600020549050919050565b61059e61098f565b60008054600181600116156101000203166002900480601f0160208091040260200160405190810160405280929190818152602001828054600181600116156101000203166002900480156106345780601f1061060957610100808354040283529160200191610634565b820191906000526020600020905b81548152906001019060200180831161061757829003601f168201915b5050505050905090565b600160009054906101000a900473ffffffffffffffffffffffffffffffffffffffff1673ffffffffffffffffffffffffffffffffffffffff163373ffffffffffffffffffffffffffffffffffffffff1614151561069a57600080fd5b80600090805190602001906106b09291906109a3565b5050565b600160009054906101000a900473ffffffffffffffffffffffffffffffffffffffff1673ffffffffffffffffffffffffffffffffffffffff163373ffffffffffffffffffffffffffffffffffffffff1614151561071057600080fd5b80600360008473ffffffffffffffffffffffffffffffffffffffff1673ffffffffffffffffffffffffffffffffffffffff16815260200190815260200160002090805190602001906107639291906109a3565b505050565b6000600160009054906101000a900473ffffffffffffffffffffffffffffffffffffffff1673ffffffffffffffffffffffffffffffffffffffff163373ffffffffffffffffffffffffffffffffffffffff161415156107c657600080fd5b6000600260008573ffffffffffffffffffffffffffffffffffffffff1673ffffffffffffffffffffffffffffffffffffffff1681526020019081526020016000205414151561081457600080fd5b8290506003600260008573ffffffffffffffffffffffffffffffffffffffff1673ffffffffffffffffffffffffffffffffffffffff1681526020019081526020016000208190555081600360008573ffffffffffffffffffffffffffffffffffffffff1673ffffffffffffffffffffffffffffffffffffffff16815260200190815260200160002090805190602001906108af9291906109a3565b50600480548060010182816108c49190610a23565b9160005260206000209001600085909190916101000a81548173ffffffffffffffffffffffffffffffffffffffff021916908373ffffffffffffffffffffffffffffffffffffffff160217905550508073ffffffffffffffffffffffffffffffffffffffff1663533aa4746040518163ffffffff167c0100000000000000000000000000000000000000000000000000000000028152600401600060405180830381600087803b151561097657600080fd5b6102c65a03f1151561098757600080fd5b505050505050565b602060405190810160405280600081525090565b828054600181600116156101000203166002900490600052602060002090601f016020900481019282601f106109e457805160ff1916838001178555610a12565b82800160010185558215610a12579182015b82811115610a115782518255916020019190600101906109f6565b5b509050610a1f9190610a4f565b5090565b815481835581811511610a4a57818360005260206000209182019101610a499190610a4f565b5b505050565b610a7191905b80821115610a6d576000816000905550600101610a55565b5090565b905600a165627a7a7230582094478b081b42a71c09b5fae6ba604a46144cfda60295b0645190d81ae373076f0029",
  "source": "pragma solidity ^0.4.19;\n\nimport \"./Pool.sol\";\n\ncontract Client {\n  string data; //encrypted data with the CLIENT'S public key\n  address owner;\n  mapping (address=>int) status; // 0 = not available, 1 = approved, 2 = rejected, 3 = pending\n  mapping (address=>string) poolData;\n  address [] poolList; //encrypted data with the POOL'S public key\n\n  function Client(address _owner) public {\n    owner = _owner;\n  }\n\n  function setStatus(int _status) external {\n    status[msg.sender] = _status;\n  }\n\n  function getStatus(address _pool) public view returns(int){\n    require(msg.sender == _pool || msg.sender == owner);\n    return status[_pool];\n  }\n\n  function getData() public view returns(string){\n    return data;\n  }\n\n  function getPoolData(address _pool) public view returns(string){\n    return poolData[_pool];\n  }\n\n  /**\n   * change client's core data\n   *\n   * @param _data new data\n   */\n  function setData(string _data) public {\n    require(msg.sender == owner);\n    data = _data;\n  }\n\n  /**\n   * change data provided to pool\n   *\n   * @param _data new data\n   */\n  function changePoolData(address _pool, string _data) public {\n    require(msg.sender == owner);\n    poolData[_pool] = _data;\n  }\n\n  /**\n   * Apply to be a node of a pool\n   *\n   * @param _pool address of pool you are applying to\n   * @param _data hello\n   */\n  function applyToPool(address _pool, string _data) public {\n    require(msg.sender == owner);\n    require(status[_pool] == 0);\n\n    Pool p = Pool(_pool);\n\n    status[_pool] = 3;\n    poolData[_pool] = _data;\n    poolList.push(_pool);\n\n    p.addClient();\n  }\n}\n",
  "sourcePath": "/home/nate/Developer/projects/gladius-contracts/contracts/Client.sol",
  "compiler": {
    "name": "solc",
    "version": "0.4.19+commit.c4cbbb05.Emscripten.clang"
  },
  "schemaVersion": "1.0.1",
  "updatedAt": "2018-03-29T17:27:57.848Z"
}