{
  "contractName": "Market",
  "abi": [
    {
      "constant": false,
      "inputs": [
        {
          "name": "_pool",
          "type": "address"
        },
        {
          "name": "_node",
          "type": "address"
        },
        {
          "name": "_amount",
          "type": "uint256"
        }
      ],
      "name": "payout",
      "outputs": [
        {
          "name": "",
          "type": "bool"
        }
      ],
      "payable": false,
      "stateMutability": "nonpayable",
      "type": "function"
    },
    {
      "constant": true,
      "inputs": [
        {
          "name": "_user",
          "type": "address"
        }
      ],
      "name": "getPayouts",
      "outputs": [
        {
          "components": [
            {
              "name": "pool",
              "type": "address"
            },
            {
              "name": "user",
              "type": "address"
            },
            {
              "name": "amount",
              "type": "uint256"
            },
            {
              "name": "timestamp",
              "type": "uint256"
            }
          ],
          "name": "",
          "type": "tuple[]"
        }
      ],
      "payable": false,
      "stateMutability": "view",
      "type": "function"
    },
    {
      "constant": true,
      "inputs": [
        {
          "name": "_client",
          "type": "address"
        }
      ],
      "name": "getClientPool",
      "outputs": [
        {
          "name": "",
          "type": "address"
        }
      ],
      "payable": false,
      "stateMutability": "view",
      "type": "function"
    },
    {
      "constant": true,
      "inputs": [
        {
          "name": "_ownerAddress",
          "type": "address"
        }
      ],
      "name": "getOwnedPools",
      "outputs": [
        {
          "name": "",
          "type": "address[]"
        }
      ],
      "payable": false,
      "stateMutability": "view",
      "type": "function"
    },
    {
      "constant": false,
      "inputs": [
        {
          "name": "_pool",
          "type": "address"
        },
        {
          "name": "_node",
          "type": "address"
        },
        {
          "name": "_client",
          "type": "address"
        },
        {
          "name": "_amount",
          "type": "uint256"
        }
      ],
      "name": "logWorkFrom",
      "outputs": [],
      "payable": false,
      "stateMutability": "nonpayable",
      "type": "function"
    },
    {
      "constant": false,
      "inputs": [
        {
          "name": "_amount",
          "type": "uint256"
        }
      ],
      "name": "work",
      "outputs": [
        {
          "name": "",
          "type": "bool"
        }
      ],
      "payable": false,
      "stateMutability": "nonpayable",
      "type": "function"
    },
    {
      "constant": true,
      "inputs": [
        {
          "name": "",
          "type": "address"
        },
        {
          "name": "",
          "type": "uint256"
        }
      ],
      "name": "marketPools",
      "outputs": [
        {
          "name": "",
          "type": "address"
        }
      ],
      "payable": false,
      "stateMutability": "view",
      "type": "function"
    },
    {
      "constant": true,
      "inputs": [
        {
          "name": "",
          "type": "uint256"
        }
      ],
      "name": "allPoolsList",
      "outputs": [
        {
          "name": "",
          "type": "address"
        }
      ],
      "payable": false,
      "stateMutability": "view",
      "type": "function"
    },
    {
      "constant": true,
      "inputs": [],
      "name": "owner",
      "outputs": [
        {
          "name": "",
          "type": "address"
        }
      ],
      "payable": false,
      "stateMutability": "view",
      "type": "function"
    },
    {
      "constant": true,
      "inputs": [
        {
          "name": "",
          "type": "address"
        },
        {
          "name": "",
          "type": "uint256"
        }
      ],
      "name": "payouts",
      "outputs": [
        {
          "name": "pool",
          "type": "address"
        },
        {
          "name": "user",
          "type": "address"
        },
        {
          "name": "amount",
          "type": "uint256"
        },
        {
          "name": "timestamp",
          "type": "uint256"
        }
      ],
      "payable": false,
      "stateMutability": "view",
      "type": "function"
    },
    {
      "constant": false,
      "inputs": [
        {
          "name": "_poolAddress",
          "type": "address"
        }
      ],
      "name": "joinMarketplace",
      "outputs": [
        {
          "name": "",
          "type": "bool"
        }
      ],
      "payable": false,
      "stateMutability": "nonpayable",
      "type": "function"
    },
    {
      "constant": true,
      "inputs": [],
      "name": "getMarketPools",
      "outputs": [
        {
          "name": "",
          "type": "address[]"
        }
      ],
      "payable": false,
      "stateMutability": "view",
      "type": "function"
    },
    {
      "constant": true,
      "inputs": [],
      "name": "balance",
      "outputs": [
        {
          "name": "owed",
          "type": "uint256"
        },
        {
          "name": "total",
          "type": "uint256"
        },
        {
          "name": "completed",
          "type": "uint256"
        },
        {
          "name": "paid",
          "type": "uint256"
        }
      ],
      "payable": false,
      "stateMutability": "view",
      "type": "function"
    },
    {
      "constant": false,
      "inputs": [
        {
          "name": "_amount",
          "type": "uint256"
        }
      ],
      "name": "pay",
      "outputs": [
        {
          "name": "",
          "type": "bool"
        }
      ],
      "payable": false,
      "stateMutability": "nonpayable",
      "type": "function"
    },
    {
      "constant": false,
      "inputs": [
        {
          "name": "_pool",
          "type": "address"
        },
        {
          "name": "_client",
          "type": "address"
        },
        {
          "name": "_amount",
          "type": "uint256"
        }
      ],
      "name": "allocateClientFundsTo",
      "outputs": [
        {
          "name": "",
          "type": "bool"
        }
      ],
      "payable": false,
      "stateMutability": "nonpayable",
      "type": "function"
    },
    {
      "constant": false,
      "inputs": [
        {
          "name": "_amount",
          "type": "uint256"
        }
      ],
      "name": "allocateFunds",
      "outputs": [
        {
          "name": "",
          "type": "bool"
        }
      ],
      "payable": false,
      "stateMutability": "nonpayable",
      "type": "function"
    },
    {
      "constant": true,
      "inputs": [
        {
          "name": "",
          "type": "address"
        }
      ],
      "name": "clientToPool",
      "outputs": [
        {
          "name": "",
          "type": "address"
        }
      ],
      "payable": false,
      "stateMutability": "view",
      "type": "function"
    },
    {
      "constant": false,
      "inputs": [
        {
          "name": "_publicKey",
          "type": "string"
        }
      ],
      "name": "createPool",
      "outputs": [
        {
          "name": "",
          "type": "address"
        }
      ],
      "payable": false,
      "stateMutability": "nonpayable",
      "type": "function"
    },
    {
      "constant": true,
      "inputs": [
        {
          "name": "",
          "type": "address"
        }
      ],
      "name": "poolToOwner",
      "outputs": [
        {
          "name": "",
          "type": "address"
        }
      ],
      "payable": false,
      "stateMutability": "view",
      "type": "function"
    },
    {
      "constant": true,
      "inputs": [],
      "name": "getAllPools",
      "outputs": [
        {
          "name": "",
          "type": "address[]"
        }
      ],
      "payable": false,
      "stateMutability": "view",
      "type": "function"
    },
    {
      "constant": true,
      "inputs": [
        {
          "name": "",
          "type": "address"
        },
        {
          "name": "",
          "type": "uint256"
        }
      ],
      "name": "ownedPools",
      "outputs": [
        {
          "name": "",
          "type": "address"
        }
      ],
      "payable": false,
      "stateMutability": "view",
      "type": "function"
    },
    {
      "constant": true,
      "inputs": [
        {
          "name": "",
          "type": "uint256"
        }
      ],
      "name": "marketPoolsList",
      "outputs": [
        {
          "name": "",
          "type": "address"
        }
      ],
      "payable": false,
      "stateMutability": "view",
      "type": "function"
    },
    {
      "inputs": [
        {
          "name": "_owner",
          "type": "address"
        },
        {
          "name": "_gladiusToken",
          "type": "address"
        },
        {
          "name": "_joinCost",
          "type": "uint256"
        },
        {
          "name": "_maxPayout",
          "type": "uint256"
        }
      ],
      "payable": false,
      "stateMutability": "nonpayable",
      "type": "constructor"
    }
  ],
  "bytecode": "0x6060604052341561000f57600080fd5b6040516080806140008339810160405280805190602001909190805190602001909190805190602001909190805190602001909190505083600c60006101000a81548173ffffffffffffffffffffffffffffffffffffffff021916908373ffffffffffffffffffffffffffffffffffffffff16021790555082600f60006101000a81548173ffffffffffffffffffffffffffffffffffffffff021916908373ffffffffffffffffffffffffffffffffffffffff16021790555081600e8190555080600d8190555050505050613f17806100e96000396000f3006060604052600436106200013f576000357c0100000000000000000000000000000000000000000000000000000000900463ffffffff16806320f801d4146200014457806324d0cc0f14620001c05780632db5b54e146200024e57806333e7f45214620002ca57806347ab23dc146200035d5780635858d16114620003e057806386bf8056146200041e578063894958aa14620004a35780638da5cb5b14620005095780639d4846931462000561578063ac0b04451462000627578063b42cb6f5146200067b578063b69ef8a814620006ea578063c290d691146200072b578063c93d248c1462000769578063c9f8cc6714620007e5578063cfa4cc4f1462000823578063d0d13036146200089f578063d4cced9a146200093f578063d88ff1f414620009bb578063dab66fb61462000a2a578063e9e242341462000aaf575b600080fd5b34156200015057600080fd5b620001a6600480803573ffffffffffffffffffffffffffffffffffffffff1690602001909190803573ffffffffffffffffffffffffffffffffffffffff1690602001909190803590602001909190505062000b15565b604051808215151515815260200191505060405180910390f35b3415620001cc57600080fd5b620001fa600480803573ffffffffffffffffffffffffffffffffffffffff1690602001909190505062000d71565b60405180806020018281038252838181518152602001915080516000925b818410156200023d578284906020019060200201518152602001926001019262000218565b925050509250505060405180910390f35b34156200025a57600080fd5b62000288600480803573ffffffffffffffffffffffffffffffffffffffff1690602001909190505062000eda565b604051808273ffffffffffffffffffffffffffffffffffffffff1673ffffffffffffffffffffffffffffffffffffffff16815260200191505060405180910390f35b3415620002d657600080fd5b62000304600480803573ffffffffffffffffffffffffffffffffffffffff1690602001909190505062000f43565b6040518080602001828103825283818151815260200191508051906020019060200280838360005b83811015620003495780820151818401526020810190506200032c565b505050509050019250505060405180910390f35b34156200036957600080fd5b620003de600480803573ffffffffffffffffffffffffffffffffffffffff1690602001909190803573ffffffffffffffffffffffffffffffffffffffff1690602001909190803573ffffffffffffffffffffffffffffffffffffffff169060200190919080359060200190919050506200101a565b005b3415620003ec57600080fd5b62000404600480803590602001909190505062001145565b604051808215151515815260200191505060405180910390f35b34156200042a57600080fd5b62000461600480803573ffffffffffffffffffffffffffffffffffffffff16906020019091908035906020019091905050620011a0565b604051808273ffffffffffffffffffffffffffffffffffffffff1673ffffffffffffffffffffffffffffffffffffffff16815260200191505060405180910390f35b3415620004af57600080fd5b620004c76004808035906020019091905050620011ef565b604051808273ffffffffffffffffffffffffffffffffffffffff1673ffffffffffffffffffffffffffffffffffffffff16815260200191505060405180910390f35b34156200051557600080fd5b6200051f6200122f565b604051808273ffffffffffffffffffffffffffffffffffffffff1673ffffffffffffffffffffffffffffffffffffffff16815260200191505060405180910390f35b34156200056d57600080fd5b620005a4600480803573ffffffffffffffffffffffffffffffffffffffff1690602001909190803590602001909190505062001255565b604051808573ffffffffffffffffffffffffffffffffffffffff1673ffffffffffffffffffffffffffffffffffffffff1681526020018473ffffffffffffffffffffffffffffffffffffffff1673ffffffffffffffffffffffffffffffffffffffff16815260200183815260200182815260200194505050505060405180910390f35b34156200063357600080fd5b62000661600480803573ffffffffffffffffffffffffffffffffffffffff16906020019091905050620012e2565b604051808215151515815260200191505060405180910390f35b34156200068757600080fd5b62000691620015b4565b6040518080602001828103825283818151815260200191508051906020019060200280838360005b83811015620006d6578082015181840152602081019050620006b9565b505050509050019250505060405180910390f35b3415620006f657600080fd5b620007006200164c565b6040518085815260200184815260200183815260200182815260200194505050505060405180910390f35b34156200073757600080fd5b6200074f60048080359060200190919050506200166a565b604051808215151515815260200191505060405180910390f35b34156200077557600080fd5b620007cb600480803573ffffffffffffffffffffffffffffffffffffffff1690602001909190803573ffffffffffffffffffffffffffffffffffffffff16906020019091908035906020019091905050620016b2565b604051808215151515815260200191505060405180910390f35b3415620007f157600080fd5b62000809600480803590602001909190505062001796565b604051808215151515815260200191505060405180910390f35b34156200082f57600080fd5b6200085d600480803573ffffffffffffffffffffffffffffffffffffffff16906020019091905050620017b4565b604051808273ffffffffffffffffffffffffffffffffffffffff1673ffffffffffffffffffffffffffffffffffffffff16815260200191505060405180910390f35b3415620008ab57600080fd5b620008fd600480803590602001908201803590602001908080601f01602080910402602001604051908101604052809392919081815260200183838082843782019150505050505091905050620017e7565b604051808273ffffffffffffffffffffffffffffffffffffffff1673ffffffffffffffffffffffffffffffffffffffff16815260200191505060405180910390f35b34156200094b57600080fd5b62000979600480803573ffffffffffffffffffffffffffffffffffffffff1690602001909190505062001a42565b604051808273ffffffffffffffffffffffffffffffffffffffff1673ffffffffffffffffffffffffffffffffffffffff16815260200191505060405180910390f35b3415620009c757600080fd5b620009d162001a75565b6040518080602001828103825283818151815260200191508051906020019060200280838360005b8381101562000a16578082015181840152602081019050620009f9565b505050509050019250505060405180910390f35b341562000a3657600080fd5b62000a6d600480803573ffffffffffffffffffffffffffffffffffffffff1690602001909190803590602001909190505062001b0d565b604051808273ffffffffffffffffffffffffffffffffffffffff1673ffffffffffffffffffffffffffffffffffffffff16815260200191505060405180910390f35b341562000abb57600080fd5b62000ad3600480803590602001909190505062001b5c565b604051808273ffffffffffffffffffffffffffffffffffffffff1673ffffffffffffffffffffffffffffffffffffffff16815260200191505060405180910390f35b600062000b2484848462001b9c565b151562000b35576000905062000d6a565b8373ffffffffffffffffffffffffffffffffffffffff1663117de2fd84846000604051602001526040518363ffffffff167c0100000000000000000000000000000000000000000000000000000000028152600401808373ffffffffffffffffffffffffffffffffffffffff1673ffffffffffffffffffffffffffffffffffffffff16815260200182815260200192505050602060405180830381600087803b151562000be157600080fd5b6102c65a03f1151562000bf357600080fd5b505050604051805190505062000c09826200166a565b50600960008473ffffffffffffffffffffffffffffffffffffffff1673ffffffffffffffffffffffffffffffffffffffff168152602001908152602001600020805480600101828162000c5d919062001dc6565b916000526020600020906004020160006080604051908101604052808873ffffffffffffffffffffffffffffffffffffffff1681526020018773ffffffffffffffffffffffffffffffffffffffff16815260200186815260200142815250909190915060008201518160000160006101000a81548173ffffffffffffffffffffffffffffffffffffffff021916908373ffffffffffffffffffffffffffffffffffffffff16021790555060208201518160010160006101000a81548173ffffffffffffffffffffffffffffffffffffffff021916908373ffffffffffffffffffffffffffffffffffffffff1602179055506040820151816002015560608201518160030155505050600190505b9392505050565b62000d7b62001dfb565b600960008373ffffffffffffffffffffffffffffffffffffffff1673ffffffffffffffffffffffffffffffffffffffff168152602001908152602001600020805480602002602001604051908101604052809291908181526020016000905b8282101562000ecf5783829060005260206000209060040201608060405190810160405290816000820160009054906101000a900473ffffffffffffffffffffffffffffffffffffffff1673ffffffffffffffffffffffffffffffffffffffff1673ffffffffffffffffffffffffffffffffffffffff1681526020016001820160009054906101000a900473ffffffffffffffffffffffffffffffffffffffff1673ffffffffffffffffffffffffffffffffffffffff1673ffffffffffffffffffffffffffffffffffffffff168152602001600282015481526020016003820154815250508152602001906001019062000dda565b505050509050919050565b6000600660008373ffffffffffffffffffffffffffffffffffffffff1673ffffffffffffffffffffffffffffffffffffffff16815260200190815260200160002060009054906101000a900473ffffffffffffffffffffffffffffffffffffffff169050919050565b62000f4d62001e0f565b600560008373ffffffffffffffffffffffffffffffffffffffff1673ffffffffffffffffffffffffffffffffffffffff1681526020019081526020016000208054806020026020016040519081016040528092919081815260200182805480156200100e57602002820191906000526020600020905b8160009054906101000a900473ffffffffffffffffffffffffffffffffffffffff1673ffffffffffffffffffffffffffffffffffffffff168152602001906001019080831162000fc3575b50505050509050919050565b60008490508073ffffffffffffffffffffffffffffffffffffffff166332a6a3768585856000604051602001526040518463ffffffff167c0100000000000000000000000000000000000000000000000000000000028152600401808473ffffffffffffffffffffffffffffffffffffffff1673ffffffffffffffffffffffffffffffffffffffff1681526020018373ffffffffffffffffffffffffffffffffffffffff1673ffffffffffffffffffffffffffffffffffffffff1681526020018281526020019350505050602060405180830381600087803b1515620010ff57600080fd5b6102c65a03f115156200111157600080fd5b5050506040518051905015156200112757600080fd5b620011328262001145565b15156200113e57600080fd5b5050505050565b600080600101548211156200115e57600090506200119b565b8160006001016000828254039250508190555081600080016000828254019250508190555081600060020160008282540192505081905550600190505b919050565b600460205281600052604060002081815481101515620011bc57fe5b90600052602060002090016000915091509054906101000a900473ffffffffffffffffffffffffffffffffffffffff1681565b600a81815481101515620011ff57fe5b90600052602060002090016000915054906101000a900473ffffffffffffffffffffffffffffffffffffffff1681565b600c60009054906101000a900473ffffffffffffffffffffffffffffffffffffffff1681565b6009602052816000526040600020818154811015156200127157fe5b9060005260206000209060040201600091509150508060000160009054906101000a900473ffffffffffffffffffffffffffffffffffffffff16908060010160009054906101000a900473ffffffffffffffffffffffffffffffffffffffff16908060020154908060030154905084565b6000803373ffffffffffffffffffffffffffffffffffffffff16600760008573ffffffffffffffffffffffffffffffffffffffff1673ffffffffffffffffffffffffffffffffffffffff16815260200190815260200160002060009054906101000a900473ffffffffffffffffffffffffffffffffffffffff1673ffffffffffffffffffffffffffffffffffffffff161415156200137f57600080fd5b600f60009054906101000a900473ffffffffffffffffffffffffffffffffffffffff1673ffffffffffffffffffffffffffffffffffffffff166323b872dd3330600e546000604051602001526040518463ffffffff167c0100000000000000000000000000000000000000000000000000000000028152600401808473ffffffffffffffffffffffffffffffffffffffff1673ffffffffffffffffffffffffffffffffffffffff1681526020018373ffffffffffffffffffffffffffffffffffffffff1673ffffffffffffffffffffffffffffffffffffffff1681526020018281526020019350505050602060405180830381600087803b15156200148357600080fd5b6102c65a03f115156200149557600080fd5b5050506040518051905050829050600460003373ffffffffffffffffffffffffffffffffffffffff1673ffffffffffffffffffffffffffffffffffffffff1681526020019081526020016000208054806001018281620014f6919062001e23565b9160005260206000209001600083909190916101000a81548173ffffffffffffffffffffffffffffffffffffffff021916908373ffffffffffffffffffffffffffffffffffffffff16021790555050600b80548060010182816200155b919062001e52565b9160005260206000209001600083909190916101000a81548173ffffffffffffffffffffffffffffffffffffffff021916908373ffffffffffffffffffffffffffffffffffffffff160217905550506001915050919050565b620015be62001e81565b600b8054806020026020016040519081016040528092919081815260200182805480156200164257602002820191906000526020600020905b8160009054906101000a900473ffffffffffffffffffffffffffffffffffffffff1673ffffffffffffffffffffffffffffffffffffffff1681526020019060010190808311620015f7575b5050505050905090565b60008060000154908060010154908060020154908060030154905084565b60008060000154821115620016835760009050620016ad565b81600080016000828254039250508190555081600060030160008282540192505081905550600190505b919050565b600080620016c08362001796565b508490508073ffffffffffffffffffffffffffffffffffffffff1663a1f2e9bf85856000604051602001526040518363ffffffff167c0100000000000000000000000000000000000000000000000000000000028152600401808373ffffffffffffffffffffffffffffffffffffffff1673ffffffffffffffffffffffffffffffffffffffff16815260200182815260200192505050602060405180830381600087803b15156200177057600080fd5b6102c65a03f115156200178257600080fd5b505050604051805190509150509392505050565b60008160006001016000828254019250508190555060019050919050565b60066020528060005260406000206000915054906101000a900473ffffffffffffffffffffffffffffffffffffffff1681565b6000808233620017f662001e95565b80806020018373ffffffffffffffffffffffffffffffffffffffff1673ffffffffffffffffffffffffffffffffffffffff168152602001828103825284818151815260200191508051906020019080838360005b83811015620018675780820151818401526020810190506200184a565b50505050905090810190601f168015620018955780820380516001836020036101000a031916815260200191505b509350505050604051809103906000f0801515620018b257600080fd5b9050600560003373ffffffffffffffffffffffffffffffffffffffff1673ffffffffffffffffffffffffffffffffffffffff168152602001908152602001600020805480600101828162001907919062001e23565b9160005260206000209001600083909190916101000a81548173ffffffffffffffffffffffffffffffffffffffff021916908373ffffffffffffffffffffffffffffffffffffffff16021790555050600a80548060010182816200196c919062001e52565b9160005260206000209001600083909190916101000a81548173ffffffffffffffffffffffffffffffffffffffff021916908373ffffffffffffffffffffffffffffffffffffffff1602179055505033600760008373ffffffffffffffffffffffffffffffffffffffff1673ffffffffffffffffffffffffffffffffffffffff16815260200190815260200160002060006101000a81548173ffffffffffffffffffffffffffffffffffffffff021916908373ffffffffffffffffffffffffffffffffffffffff16021790555080915050919050565b60076020528060005260406000206000915054906101000a900473ffffffffffffffffffffffffffffffffffffffff1681565b62001a7f62001e81565b600a80548060200260200160405190810160405280929190818152602001828054801562001b0357602002820191906000526020600020905b8160009054906101000a900473ffffffffffffffffffffffffffffffffffffffff1673ffffffffffffffffffffffffffffffffffffffff168152602001906001019080831162001ab8575b5050505050905090565b60056020528160005260406000208181548110151562001b2957fe5b90600052602060002090016000915091509054906101000a900473ffffffffffffffffffffffffffffffffffffffff1681565b600b8181548110151562001b6c57fe5b90600052602060002090016000915054906101000a900473ffffffffffffffffffffffffffffffffffffffff1681565b600080600080600080600960008973ffffffffffffffffffffffffffffffffffffffff1673ffffffffffffffffffffffffffffffffffffffff1681526020019081526020016000209450600593508387111562001bfd576000955062001dba565b60008580549050141562001c15576001955062001dba565b60009250600185805490500391505b60008210151562001cd757848281548110151562001c3e57fe5b906000526020600020906004020190506201518081600301544203111562001c665762001cd7565b8060000160009054906101000a900473ffffffffffffffffffffffffffffffffffffffff1673ffffffffffffffffffffffffffffffffffffffff168973ffffffffffffffffffffffffffffffffffffffff16141562001cc9578060020154830192505b818060010192505062001c24565b838310801562001da557508873ffffffffffffffffffffffffffffffffffffffff1663ac28949c896000604051602001526040518263ffffffff167c0100000000000000000000000000000000000000000000000000000000028152600401808273ffffffffffffffffffffffffffffffffffffffff1673ffffffffffffffffffffffffffffffffffffffff168152602001915050602060405180830381600087803b151562001d8657600080fd5b6102c65a03f1151562001d9857600080fd5b5050506040518051905087105b1562001db5576001955062001dba565b600095505b50505050509392505050565b81548183558181151162001df65760040281600402836000526020600020918201910162001df5919062001ea6565b5b505050565b602060405190810160405280600081525090565b602060405190810160405280600081525090565b81548183558181151162001e4d5781836000526020600020918201910162001e4c919062001f26565b5b505050565b81548183558181151162001e7c5781836000526020600020918201910162001e7b919062001f26565b5b505050565b602060405190810160405280600081525090565b604051611f9d8062001f4f83390190565b62001f2391905b8082111562001f1f57600080820160006101000a81549073ffffffffffffffffffffffffffffffffffffffff02191690556001820160006101000a81549073ffffffffffffffffffffffffffffffffffffffff0219169055600282016000905560038201600090555060040162001ead565b5090565b90565b62001f4b91905b8082111562001f4757600081600090555060010162001f2d565b5090565b905600606060405234156200001057600080fd5b60405162001f9d38038062001f9d83398101604052808051820191906020018051906020019091905050816004908051906020019062000052929190620000ee565b5080600760006101000a81548173ffffffffffffffffffffffffffffffffffffffff021916908373ffffffffffffffffffffffffffffffffffffffff160217905550602060405190810160405280600081525060059080519060200190620000bc929190620000ee565b50602060405190810160405280600081525060069080519060200190620000e5929190620000ee565b5050506200019d565b828054600181600116156101000203166002900490600052602060002090601f016020900481019282601f106200013157805160ff191683800117855562000162565b8280016001018555821562000162579182015b828111156200016157825182559160200191906001019062000144565b5b50905062000171919062000175565b5090565b6200019a91905b80821115620001965760008160009055506001016200017c565b5090565b90565b611df080620001ad6000396000f300606060405260043610610133576000357c0100000000000000000000000000000000000000000000000000000000900463ffffffff168063117de2fd1461013857806332a6a37614610192578063400008cf1461020b57806347064d6a14610244578063533aa4741461027257806353f3b713146102875780635858d161146102f157806363ffab311461032c57806373d4a13a146103ba5780637cc62dd7146104485780639a76717a146104aa578063a1f2e9bf14610538578063a3eb944414610592578063a8f9868e146105cb578063ac28949c14610618578063aef2a61814610665578063b69ef8a81461069e578063c290d691146106dc578063c9f8cc6714610717578063d644f76714610752578063e07c60e1146107bc578063e086f581146107d1578063fddbd2751461080a575b600080fd5b341561014357600080fd5b610178600480803573ffffffffffffffffffffffffffffffffffffffff16906020019091908035906020019091905050610838565b604051808215151515815260200191505060405180910390f35b341561019d57600080fd5b6101f1600480803573ffffffffffffffffffffffffffffffffffffffff1690602001909190803573ffffffffffffffffffffffffffffffffffffffff16906020019091908035906020019091905050610949565b604051808215151515815260200191505060405180910390f35b341561021657600080fd5b610242600480803573ffffffffffffffffffffffffffffffffffffffff16906020019091905050610b3f565b005b341561024f57600080fd5b61027060048080359060200190820180359060200191909192905050610cf3565b005b341561027d57600080fd5b610285610d65565b005b341561029257600080fd5b61029a610f1a565b6040518080602001828103825283818151815260200191508051906020019060200280838360005b838110156102dd5780820151818401526020810190506102c2565b505050509050019250505060405180910390f35b34156102fc57600080fd5b6103126004808035906020019091905050610fae565b604051808215151515815260200191505060405180910390f35b341561033757600080fd5b61033f611007565b6040518080602001828103825283818151815260200191508051906020019080838360005b8381101561037f578082015181840152602081019050610364565b50505050905090810190601f1680156103ac5780820380516001836020036101000a031916815260200191505b509250505060405180910390f35b34156103c557600080fd5b6103cd6110a5565b6040518080602001828103825283818151815260200191508051906020019080838360005b8381101561040d5780820151818401526020810190506103f2565b50505050905090810190601f16801561043a5780820380516001836020036101000a031916815260200191505b509250505060405180910390f35b341561045357600080fd5b61047f600480803573ffffffffffffffffffffffffffffffffffffffff16906020019091905050611143565b6040518085815260200184815260200183815260200182815260200194505050505060405180910390f35b34156104b557600080fd5b6104bd611264565b6040518080602001828103825283818151815260200191508051906020019080838360005b838110156104fd5780820151818401526020810190506104e2565b50505050905090810190601f16801561052a5780820380516001836020036101000a031916815260200191505b509250505060405180910390f35b341561054357600080fd5b610578600480803573ffffffffffffffffffffffffffffffffffffffff16906020019091908035906020019091905050611302565b604051808215151515815260200191505060405180910390f35b341561059d57600080fd5b6105c9600480803573ffffffffffffffffffffffffffffffffffffffff169060200190919050506113f9565b005b34156105d657600080fd5b610602600480803573ffffffffffffffffffffffffffffffffffffffff169060200190919050506115ad565b6040518082815260200191505060405180910390f35b341561062357600080fd5b61064f600480803573ffffffffffffffffffffffffffffffffffffffff169060200190919050506115f9565b6040518082815260200191505060405180910390f35b341561067057600080fd5b61069c600480803573ffffffffffffffffffffffffffffffffffffffff1690602001909190505061163a565b005b34156106a957600080fd5b6106b16117ee565b6040518085815260200184815260200183815260200182815260200194505050505060405180910390f35b34156106e757600080fd5b6106fd600480803590602001909190505061180c565b604051808215151515815260200191505060405180910390f35b341561072257600080fd5b6107386004808035906020019091905050611852565b604051808215151515815260200191505060405180910390f35b341561075d57600080fd5b610765611870565b6040518080602001828103825283818151815260200191508051906020019060200280838360005b838110156107a857808201518184015260208101905061078d565b505050509050019250505060405180910390f35b34156107c757600080fd5b6107cf611904565b005b34156107dc57600080fd5b610808600480803573ffffffffffffffffffffffffffffffffffffffff16906020019091905050611ab9565b005b341561081557600080fd5b61083660048080359060200190820180359060200191909192905050611c6d565b005b600080600c60008573ffffffffffffffffffffffffffffffffffffffff1673ffffffffffffffffffffffffffffffffffffffff16815260200190815260200160002090506108858361180c565b80156108945750806000015483115b1561089e57600080fd5b608060405190810160405280848360000154038152602001826001015481526020018260020154815260200184836003015401815250600c60008673ffffffffffffffffffffffffffffffffffffffff1673ffffffffffffffffffffffffffffffffffffffff16815260200190815260200160002060008201518160000155602082015181600101556040820151816002015560608201518160030155905050600191505092915050565b6000806000600c60008773ffffffffffffffffffffffffffffffffffffffff1673ffffffffffffffffffffffffffffffffffffffff1681526020019081526020016000209150600c60008673ffffffffffffffffffffffffffffffffffffffff1673ffffffffffffffffffffffffffffffffffffffff16815260200190815260200160002090506109d984610fae565b80156109e85750806001015484115b156109f257600080fd5b608060405190810160405280858460000154018152602001836001015481526020018584600201540181526020018360030154815250600c60008873ffffffffffffffffffffffffffffffffffffffff1673ffffffffffffffffffffffffffffffffffffffff16815260200190815260200160002060008201518160000155602082015181600101556040820151816002015560608201518160030155905050608060405190810160405280826000015481526020018583600101540381526020018583600201540181526020018260030154815250600c60008773ffffffffffffffffffffffffffffffffffffffff1673ffffffffffffffffffffffffffffffffffffffff168152602001908152602001600020600082015181600001556020820151816001015560408201518160020155606082015181600301559050506001925050509392505050565b6000600760009054906101000a900473ffffffffffffffffffffffffffffffffffffffff1673ffffffffffffffffffffffffffffffffffffffff163373ffffffffffffffffffffffffffffffffffffffff16141515610b9d57600080fd5b81905060028173ffffffffffffffffffffffffffffffffffffffff166330ccebb5306000604051602001526040518263ffffffff167c0100000000000000000000000000000000000000000000000000000000028152600401808273ffffffffffffffffffffffffffffffffffffffff1673ffffffffffffffffffffffffffffffffffffffff168152602001915050602060405180830381600087803b1515610c4557600080fd5b6102c65a03f11515610c5657600080fd5b50505060405180519050141515610c6c57600080fd5b8073ffffffffffffffffffffffffffffffffffffffff166317bc269b60016040518263ffffffff167c010000000000000000000000000000000000000000000000000000000002815260040180828152602001915050600060405180830381600087803b1515610cdb57600080fd5b6102c65a03f11515610cec57600080fd5b5050505050565b600760009054906101000a900473ffffffffffffffffffffffffffffffffffffffff1673ffffffffffffffffffffffffffffffffffffffff163373ffffffffffffffffffffffffffffffffffffffff16141515610d4f57600080fd5b818160059190610d60929190611cdf565b505050565b600033905060028173ffffffffffffffffffffffffffffffffffffffff166330ccebb5306000604051602001526040518263ffffffff167c0100000000000000000000000000000000000000000000000000000000028152600401808273ffffffffffffffffffffffffffffffffffffffff1673ffffffffffffffffffffffffffffffffffffffff168152602001915050602060405180830381600087803b1515610e0f57600080fd5b6102c65a03f11515610e2057600080fd5b50505060405180519050141515610e3657600080fd5b60088054806001018281610e4a9190611d5f565b9160005260206000209001600033909190916101000a81548173ffffffffffffffffffffffffffffffffffffffff021916908373ffffffffffffffffffffffffffffffffffffffff1602179055505080600a60003373ffffffffffffffffffffffffffffffffffffffff1673ffffffffffffffffffffffffffffffffffffffff16815260200190815260200160002060006101000a81548173ffffffffffffffffffffffffffffffffffffffff021916908373ffffffffffffffffffffffffffffffffffffffff16021790555050565b610f22611d8b565b6009805480602002602001604051908101604052809291908181526020018280548015610fa457602002820191906000526020600020905b8160009054906101000a900473ffffffffffffffffffffffffffffffffffffffff1673ffffffffffffffffffffffffffffffffffffffff1681526020019060010190808311610f5a575b5050505050905090565b60008060010154821115610fc55760009050611002565b8160006001016000828254039250508190555081600080016000828254019250508190555081600060020160008282540192505081905550600190505b919050565b60048054600181600116156101000203166002900480601f01602080910402602001604051908101604052809291908181526020018280546001816001161561010002031660029004801561109d5780601f106110725761010080835404028352916020019161109d565b820191906000526020600020905b81548152906001019060200180831161108057829003601f168201915b505050505081565b60058054600181600116156101000203166002900480601f01602080910402602001604051908101604052809291908181526020018280546001816001161561010002031660029004801561113b5780601f106111105761010080835404028352916020019161113b565b820191906000526020600020905b81548152906001019060200180831161111e57829003601f168201915b505050505081565b600080600080600c60008673ffffffffffffffffffffffffffffffffffffffff1673ffffffffffffffffffffffffffffffffffffffff16815260200190815260200160002060000154600c60008773ffffffffffffffffffffffffffffffffffffffff1673ffffffffffffffffffffffffffffffffffffffff16815260200190815260200160002060010154600c60008873ffffffffffffffffffffffffffffffffffffffff1673ffffffffffffffffffffffffffffffffffffffff16815260200190815260200160002060020154600c60008973ffffffffffffffffffffffffffffffffffffffff1673ffffffffffffffffffffffffffffffffffffffff1681526020019081526020016000206003015493509350935093509193509193565b60068054600181600116156101000203166002900480601f0160208091040260200160405190810160405280929190818152602001828054600181600116156101000203166002900480156112fa5780601f106112cf576101008083540402835291602001916112fa565b820191906000526020600020905b8154815290600101906020018083116112dd57829003601f168201915b505050505081565b60008061130e83611852565b50600c60008573ffffffffffffffffffffffffffffffffffffffff1673ffffffffffffffffffffffffffffffffffffffff168152602001908152602001600020905060806040519081016040528082600001548152602001848360010154018152602001826002015481526020018260030154815250600c60008673ffffffffffffffffffffffffffffffffffffffff1673ffffffffffffffffffffffffffffffffffffffff16815260200190815260200160002060008201518160000155602082015181600101556040820151816002015560608201518160030155905050600191505092915050565b6000600760009054906101000a900473ffffffffffffffffffffffffffffffffffffffff1673ffffffffffffffffffffffffffffffffffffffff163373ffffffffffffffffffffffffffffffffffffffff1614151561145757600080fd5b81905060028173ffffffffffffffffffffffffffffffffffffffff166330ccebb5306000604051602001526040518263ffffffff167c0100000000000000000000000000000000000000000000000000000000028152600401808273ffffffffffffffffffffffffffffffffffffffff1673ffffffffffffffffffffffffffffffffffffffff168152602001915050602060405180830381600087803b15156114ff57600080fd5b6102c65a03f1151561151057600080fd5b5050506040518051905014151561152657600080fd5b8073ffffffffffffffffffffffffffffffffffffffff166317bc269b60016040518263ffffffff167c010000000000000000000000000000000000000000000000000000000002815260040180828152602001915050600060405180830381600087803b151561159557600080fd5b6102c65a03f115156115a657600080fd5b5050505050565b6000600c60008373ffffffffffffffffffffffffffffffffffffffff1673ffffffffffffffffffffffffffffffffffffffff168152602001908152602001600020600101549050919050565b6000600c60008373ffffffffffffffffffffffffffffffffffffffff1673ffffffffffffffffffffffffffffffffffffffff16815260200190815250919050565b6000600760009054906101000a900473ffffffffffffffffffffffffffffffffffffffff1673ffffffffffffffffffffffffffffffffffffffff163373ffffffffffffffffffffffffffffffffffffffff1614151561169857600080fd5b81905060028173ffffffffffffffffffffffffffffffffffffffff166330ccebb5306000604051602001526040518263ffffffff167c0100000000000000000000000000000000000000000000000000000000028152600401808273ffffffffffffffffffffffffffffffffffffffff1673ffffffffffffffffffffffffffffffffffffffff168152602001915050602060405180830381600087803b151561174057600080fd5b6102c65a03f1151561175157600080fd5b5050506040518051905014151561176757600080fd5b8073ffffffffffffffffffffffffffffffffffffffff166317bc269b60006040518263ffffffff167c010000000000000000000000000000000000000000000000000000000002815260040180828152602001915050600060405180830381600087803b15156117d657600080fd5b6102c65a03f115156117e757600080fd5b5050505050565b60008060000154908060010154908060020154908060030154905084565b60008060000154821115611823576000905061184d565b81600080016000828254039250508190555081600060030160008282540192505081905550600190505b919050565b60008160006001016000828254019250508190555060019050919050565b611878611d8b565b60088054806020026020016040519081016040528092919081815260200182805480156118fa57602002820191906000526020600020905b8160009054906101000a900473ffffffffffffffffffffffffffffffffffffffff1673ffffffffffffffffffffffffffffffffffffffff16815260200190600101908083116118b0575b5050505050905090565b600033905060028173ffffffffffffffffffffffffffffffffffffffff166330ccebb5306000604051602001526040518263ffffffff167c0100000000000000000000000000000000000000000000000000000000028152600401808273ffffffffffffffffffffffffffffffffffffffff1673ffffffffffffffffffffffffffffffffffffffff168152602001915050602060405180830381600087803b15156119ae57600080fd5b6102c65a03f115156119bf57600080fd5b505050604051805190501415156119d557600080fd5b600980548060010182816119e99190611d5f565b9160005260206000209001600033909190916101000a81548173ffffffffffffffffffffffffffffffffffffffff021916908373ffffffffffffffffffffffffffffffffffffffff1602179055505080600b60003373ffffffffffffffffffffffffffffffffffffffff1673ffffffffffffffffffffffffffffffffffffffff16815260200190815260200160002060006101000a81548173ffffffffffffffffffffffffffffffffffffffff021916908373ffffffffffffffffffffffffffffffffffffffff16021790555050565b6000600760009054906101000a900473ffffffffffffffffffffffffffffffffffffffff1673ffffffffffffffffffffffffffffffffffffffff163373ffffffffffffffffffffffffffffffffffffffff16141515611b1757600080fd5b81905060028173ffffffffffffffffffffffffffffffffffffffff166330ccebb5306000604051602001526040518263ffffffff167c0100000000000000000000000000000000000000000000000000000000028152600401808273ffffffffffffffffffffffffffffffffffffffff1673ffffffffffffffffffffffffffffffffffffffff168152602001915050602060405180830381600087803b1515611bbf57600080fd5b6102c65a03f11515611bd057600080fd5b50505060405180519050141515611be657600080fd5b8073ffffffffffffffffffffffffffffffffffffffff166317bc269b60006040518263ffffffff167c010000000000000000000000000000000000000000000000000000000002815260040180828152602001915050600060405180830381600087803b1515611c5557600080fd5b6102c65a03f11515611c6657600080fd5b5050505050565b600760009054906101000a900473ffffffffffffffffffffffffffffffffffffffff1673ffffffffffffffffffffffffffffffffffffffff163373ffffffffffffffffffffffffffffffffffffffff16141515611cc957600080fd5b818160069190611cda929190611cdf565b505050565b828054600181600116156101000203166002900490600052602060002090601f016020900481019282601f10611d2057803560ff1916838001178555611d4e565b82800160010185558215611d4e579182015b82811115611d4d578235825591602001919060010190611d32565b5b509050611d5b9190611d9f565b5090565b815481835581811511611d8657818360005260206000209182019101611d859190611d9f565b5b505050565b602060405190810160405280600081525090565b611dc191905b80821115611dbd576000816000905550600101611da5565b5090565b905600a165627a7a72305820ebd3d175a0cf4e81dd637a5e6b275cfe454c26e067beb889882068e5d05176350029a165627a7a7230582055d47a0794960e9eb9030e079e3f342403c42e7eef43d922b4253768ee5374780029",
  "source": "pragma solidity ^0.4.19;\n\nimport \"./Pool.sol\";\nimport \"./AbstractBalance.sol\";\n\n/// Maps functions of Gladius Token to the base Token contract\ncontract Token {\n  mapping (address => uint256) public balanceOf;\n  function getBal(address owner) public returns(uint256 bal);\n  function transferFrom(address _from, address _to, uint256 _value) public returns (bool success);\n}\n\ncontract Market is AbstractBalance {\n\n  mapping(address => Pool[]) public marketPools;        // All Pools in marketplace, ignores non-market Pools\n  mapping(address => Pool[]) public ownedPools;         // All Pools created off this contract, regardless of listing in marketplace\n  mapping(address => Pool) public clientToPool;         // Client that pays the Pool for service\n  mapping(address => address) public poolToOwner;       // Owner of a Pool\n  mapping(address => uint32) tokensPaid;                // Account balance of the clients\n  mapping(address => Payout[]) public payouts;\n\n  address[] public allPoolsList;                        // Array of all pools\n  address[] public marketPoolsList;                     // Array of all pools on the marketplace\n\n  address public owner;                                 // Owner of the market\n  uint256 maxPayout;                                    // Max amount a pool can withdraw daily\n  uint256 joinCost;                                     // Cost to join marketplace\n\n  Token gladiusToken;\n\n  struct Payout {\n    address pool;\n    address user;\n    uint256 amount;\n    uint timestamp;\n  }\n\n  /**\n   * Marketplace constructor\n   *\n   * Logic\n   * @param _owner Owners address\n   * @param _gladiusToken GladiusToken address\n   * @param _joinCost Cost to join the marketplace\n   * @param _maxPayout Maxium payout to pool owners in a given day\n   */\n  function Market(address _owner, address _gladiusToken, uint256 _joinCost, uint256 _maxPayout) public {\n    owner = _owner;\n    gladiusToken = Token(_gladiusToken);\n    joinCost = _joinCost;\n    maxPayout = _maxPayout;\n  }\n\n  /**\n   * Create a new pool. This is FREE but DOES NOT add pool to the marketplace\n   *\n   * Instantiate a new Pool and set the sender as the owner\n   * @param _publicKey Public RSA key used to encrypt traffic\n   * @return address Address to the new Pool\n   */\n   function createPool(string _publicKey) public returns(address) {\n     Pool newPool = new Pool(_publicKey, msg.sender);\n     ownedPools[msg.sender].push(newPool);\n     allPoolsList.push(newPool);\n     poolToOwner[newPool] = msg.sender;\n\n     return newPool;\n   }\n\n  /**\n   * List out pools owned by given address\n   *\n   * Returns a list of pools\n   * @param _ownerAddress Description\n   * @return Pool[] List of Pools owned by _ownerAddress\n   */\n  function getOwnedPools(address _ownerAddress) public view returns (Pool[]) {\n    return ownedPools[_ownerAddress];\n  }\n\n  /**\n   * Returns an array of all pools that a website(client) uses\n   *\n   * @param _client Address of client to query pools\n   * @return poolAddress Address to a list of pools the client is a part of\n   */\n  function getClientPool(address _client) public view returns(Pool) {\n    return clientToPool[_client];\n  }\n\n  /**\n   * Records an amount of work done in a pool for a node by a client\n   *\n   * @param _pool Pool address to record work to\n   * @param _node Node that completed the work\n   * @param _client Client that will be billed for the nodes work\n   * @param _amount Amount of work completed\n   */\n  function logWorkFrom(address _pool, address _node, address _client, uint _amount) public {\n    Pool pool = Pool(_pool);\n\n    require(pool.logWorkFrom(_node, _client, _amount));\n    require(work(_amount));\n  }\n\n  /**\n   * Returns a list of receipts of payouts for a given user\n   *\n   * @param _user User to retrieve payouts from\n   * @return Payout[] array of payouts\n   */\n  function getPayouts(address _user) public view returns(Payout[]) {\n    return payouts[_user];\n  }\n\n  /**\n   * Determines if a node can withdraw money\n   *\n   * Checks the daily maximum and the timeframe of last payout\n   * @param _pool Pool address to record work to\n   * @param _node Node that completed the work\n   * @param _amount Amount of work completed\n   * @return bool true if node can withdraw\n   */\n  function canPayNode(address _pool, address _node, uint256 _amount) private view returns (bool) {\n    Payout[] storage poolPayouts = payouts[_node];\n\n    // Arbitrary number for now\n    uint256 dailyMaximum = 5;\n\n    if (_amount > dailyMaximum) {\n      return false;\n    }\n\n    if (poolPayouts.length == 0) {\n      return true;\n    } else {\n      uint256 recentPayouts = 0;\n      for(uint i = poolPayouts.length - 1; i>=0; i++) {\n        Payout storage payout = poolPayouts[i];\n        if (now - payout.timestamp > 86400) {\n          break;\n        } else if (_pool == payout.pool) {\n          recentPayouts += payout.amount;\n        }\n      }\n\n      if (recentPayouts < dailyMaximum && _amount < Pool(_pool).getOwedBalanceFor(_node)) {\n        return true;\n      } else {\n        return false;\n      }\n    }\n  }\n\n  /**\n   * Lets a node withdraw money owed to them if canPayNode() passes\n   *\n   * Actual payout function that transfers money\n   * @param _pool Pool address to record work to\n   * @param _node Node that completed the work\n   * @param _amount Amount of work completed\n   * @return bool true if withdraw was successful\n   */\n  function payout(address _pool, address _node, uint256 _amount) public returns (bool) {\n    if (!canPayNode(_pool, _node, _amount)) {\n      return false;\n    }\n\n    Pool(_pool).payout(_node, _amount);\n    pay(_amount);\n\n    payouts[_node].push(Payout(_pool,  _node, _amount, now));\n\n    return true;\n  }\n\n  /**\n   * Adds the pool address to the marketplace, and charges the owner of the pool the join cost\n   *\n   * Require that the pool's owner is the sender\n   * Checks account balance and transfers money from the sender to the pool's address for the join cost\n   * Creates a pool instance from the address and pushes the pool to the market place pools\n   *\n   * @param _poolAddress Param Description\n   */\n  function joinMarketplace(address _poolAddress) public returns(bool) {\n    require(poolToOwner[_poolAddress] == msg.sender); //caller owns pool and pool exists\n\n    gladiusToken.transferFrom(msg.sender, address(this), joinCost); //charge the caller to add to marketplace (right now just burn)\n\n    Pool p = Pool(_poolAddress);\n    marketPools[msg.sender].push(p); //add pool to the marketplace\n    marketPoolsList.push(p);\n\n    return true;\n  }\n\n  /**\n   * Initial allocation of funds from Client to Market\n   *\n   * Moves money from a client into the MarketPlace\n   * @param _pool address\n   * @param _client address\n   * @param _amount uint\n   * @return bool TODO run through checks to ensure transfer logic passes\n   */\n  function allocateClientFundsTo(address _pool, address _client, uint _amount) public returns (bool) {\n    // TODO - Allocate pool funds first to ensure marketplace should allocate\n    allocateFunds(_amount);\n\n    Pool pool = Pool(_pool);\n    // Allocate pool balance\n    return pool.allocateFundsFrom(_client, _amount);\n  }\n\n  function getAllPools() public view returns (address[]) {\n    return allPoolsList;\n  }\n\n  function getMarketPools() public view returns (address[]) {\n    return marketPoolsList;\n  }\n}\n",
  "sourcePath": "/home/nate/Developer/projects/gladius-contracts/contracts/Market.sol",
  "compiler": {
    "name": "solc",
    "version": "0.4.19+commit.c4cbbb05.Emscripten.clang"
  },
  "schemaVersion": "1.0.1",
  "updatedAt": "2018-03-23T20:05:36.337Z"
}