{
  "contractName": "Node",
  "abi": [
    {
      "constant": true,
      "inputs": [],
      "name": "data",
      "outputs": [
        {
          "name": "",
          "type": "string"
        }
      ],
      "payable": false,
      "stateMutability": "view",
      "type": "function"
    },
    {
      "constant": true,
      "inputs": [],
      "name": "publicData",
      "outputs": [
        {
          "name": "",
          "type": "string"
        }
      ],
      "payable": false,
      "stateMutability": "view",
      "type": "function"
    },
    {
      "inputs": [
        {
          "name": "_owner",
          "type": "address"
        }
      ],
      "payable": false,
      "stateMutability": "nonpayable",
      "type": "constructor"
    },
    {
      "constant": false,
      "inputs": [
        {
          "name": "_data",
          "type": "string"
        }
      ],
      "name": "setData",
      "outputs": [],
      "payable": false,
      "stateMutability": "nonpayable",
      "type": "function"
    },
    {
      "constant": false,
      "inputs": [
        {
          "name": "_publicData",
          "type": "string"
        }
      ],
      "name": "setPublicData",
      "outputs": [],
      "payable": false,
      "stateMutability": "nonpayable",
      "type": "function"
    },
    {
      "constant": false,
      "inputs": [
        {
          "name": "_status",
          "type": "int256"
        }
      ],
      "name": "setStatus",
      "outputs": [],
      "payable": false,
      "stateMutability": "nonpayable",
      "type": "function"
    },
    {
      "constant": true,
      "inputs": [
        {
          "name": "_pool",
          "type": "address"
        }
      ],
      "name": "getStatus",
      "outputs": [
        {
          "name": "",
          "type": "int256"
        }
      ],
      "payable": false,
      "stateMutability": "view",
      "type": "function"
    },
    {
      "constant": true,
      "inputs": [
        {
          "name": "_pool",
          "type": "address"
        }
      ],
      "name": "getPoolData",
      "outputs": [
        {
          "name": "",
          "type": "string"
        }
      ],
      "payable": false,
      "stateMutability": "view",
      "type": "function"
    },
    {
      "constant": true,
      "inputs": [],
      "name": "getPoolList",
      "outputs": [
        {
          "name": "",
          "type": "address[]"
        }
      ],
      "payable": false,
      "stateMutability": "view",
      "type": "function"
    },
    {
      "constant": false,
      "inputs": [
        {
          "name": "_pool",
          "type": "address"
        },
        {
          "name": "_data",
          "type": "string"
        }
      ],
      "name": "changePoolData",
      "outputs": [],
      "payable": false,
      "stateMutability": "nonpayable",
      "type": "function"
    },
    {
      "constant": false,
      "inputs": [
        {
          "name": "_pool",
          "type": "address"
        },
        {
          "name": "_data",
          "type": "string"
        }
      ],
      "name": "applyToPool",
      "outputs": [],
      "payable": false,
      "stateMutability": "nonpayable",
      "type": "function"
    }
  ],
  "bytecode": "0x6060604052341561000f57600080fd5b604051602080610efa8339810160405280805190602001909190505080600260006101000a81548173ffffffffffffffffffffffffffffffffffffffff021916908373ffffffffffffffffffffffffffffffffffffffff1602179055506020604051908101604052806000815250600090805190602001906100929291906100c0565b506020604051908101604052806000815250600190805190602001906100b99291906100c0565b5050610165565b828054600181600116156101000203166002900490600052602060002090601f016020900481019282601f1061010157805160ff191683800117855561012f565b8280016001018555821561012f579182015b8281111561012e578251825591602001919060010190610113565b5b50905061013c9190610140565b5090565b61016291905b8082111561015e576000816000905550600101610146565b5090565b90565b610d86806101746000396000f3006060604052600436106100a4576000357c0100000000000000000000000000000000000000000000000000000000900463ffffffff16806313d21cdf146100a957806317bc269b1461015b57806330ccebb51461017e57806347064d6a146101cb5780634b8aad60146101f957806373d4a13a146102755780639a76717a14610303578063b5eca7ec14610391578063d41dcbea1461040d578063fddbd27514610477575b600080fd5b34156100b457600080fd5b6100e0600480803573ffffffffffffffffffffffffffffffffffffffff169060200190919050506104a5565b6040518080602001828103825283818151815260200191508051906020019080838360005b83811015610120578082015181840152602081019050610105565b50505050905090810190601f16801561014d5780820380516001836020036101000a031916815260200191505b509250505060405180910390f35b341561016657600080fd5b61017c600480803590602001909190505061058c565b005b341561018957600080fd5b6101b5600480803573ffffffffffffffffffffffffffffffffffffffff169060200190919050506105d3565b6040518082815260200191505060405180910390f35b34156101d657600080fd5b6101f7600480803590602001908201803590602001919091929050506106ae565b005b341561020457600080fd5b610273600480803573ffffffffffffffffffffffffffffffffffffffff1690602001909190803590602001908201803590602001908080601f01602080910402602001604051908101604052809392919081815260200183838082843782019150505050505091905050610720565b005b341561028057600080fd5b6102886107d4565b6040518080602001828103825283818151815260200191508051906020019080838360005b838110156102c85780820151818401526020810190506102ad565b50505050905090810190601f1680156102f55780820380516001836020036101000a031916815260200191505b509250505060405180910390f35b341561030e57600080fd5b610316610872565b6040518080602001828103825283818151815260200191508051906020019080838360005b8381101561035657808201518184015260208101905061033b565b50505050905090810190601f1680156103835780820380516001836020036101000a031916815260200191505b509250505060405180910390f35b341561039c57600080fd5b61040b600480803573ffffffffffffffffffffffffffffffffffffffff1690602001909190803590602001908201803590602001908080601f01602080910402602001604051908101604052809392919081815260200183838082843782019150505050505091905050610910565b005b341561041857600080fd5b610420610b37565b6040518080602001828103825283818151815260200191508051906020019060200280838360005b83811015610463578082015181840152602081019050610448565b505050509050019250505060405180910390f35b341561048257600080fd5b6104a360048080359060200190820180359060200191909192905050610bcb565b005b6104ad610be1565b600560008373ffffffffffffffffffffffffffffffffffffffff1673ffffffffffffffffffffffffffffffffffffffff1681526020019081526020016000208054600181600116156101000203166002900480601f0160208091040260200160405190810160405280929190818152602001828054600181600116156101000203166002900480156105805780601f1061055557610100808354040283529160200191610580565b820191906000526020600020905b81548152906001019060200180831161056357829003601f168201915b50505050509050919050565b80600460003373ffffffffffffffffffffffffffffffffffffffff1673ffffffffffffffffffffffffffffffffffffffff1681526020019081526020016000208190555050565b60008173ffffffffffffffffffffffffffffffffffffffff163373ffffffffffffffffffffffffffffffffffffffff16148061065c5750600260009054906101000a900473ffffffffffffffffffffffffffffffffffffffff1673ffffffffffffffffffffffffffffffffffffffff163373ffffffffffffffffffffffffffffffffffffffff16145b151561066757600080fd5b600460008373ffffffffffffffffffffffffffffffffffffffff1673ffffffffffffffffffffffffffffffffffffffff168152602001908152602001600020549050919050565b600260009054906101000a900473ffffffffffffffffffffffffffffffffffffffff1673ffffffffffffffffffffffffffffffffffffffff163373ffffffffffffffffffffffffffffffffffffffff1614151561070a57600080fd5b81816000919061071b929190610bf5565b505050565b600260009054906101000a900473ffffffffffffffffffffffffffffffffffffffff1673ffffffffffffffffffffffffffffffffffffffff163373ffffffffffffffffffffffffffffffffffffffff1614151561077c57600080fd5b80600560008473ffffffffffffffffffffffffffffffffffffffff1673ffffffffffffffffffffffffffffffffffffffff16815260200190815260200160002090805190602001906107cf929190610c75565b505050565b60008054600181600116156101000203166002900480601f01602080910402602001604051908101604052809291908181526020018280546001816001161561010002031660029004801561086a5780601f1061083f5761010080835404028352916020019161086a565b820191906000526020600020905b81548152906001019060200180831161084d57829003601f168201915b505050505081565b60018054600181600116156101000203166002900480601f0160208091040260200160405190810160405280929190818152602001828054600181600116156101000203166002900480156109085780601f106108dd57610100808354040283529160200191610908565b820191906000526020600020905b8154815290600101906020018083116108eb57829003601f168201915b505050505081565b6000600260009054906101000a900473ffffffffffffffffffffffffffffffffffffffff1673ffffffffffffffffffffffffffffffffffffffff163373ffffffffffffffffffffffffffffffffffffffff1614151561096e57600080fd5b6000600460008573ffffffffffffffffffffffffffffffffffffffff1673ffffffffffffffffffffffffffffffffffffffff168152602001908152602001600020541415156109bc57600080fd5b8290506003600460008573ffffffffffffffffffffffffffffffffffffffff1673ffffffffffffffffffffffffffffffffffffffff1681526020019081526020016000208190555081600560008573ffffffffffffffffffffffffffffffffffffffff1673ffffffffffffffffffffffffffffffffffffffff1681526020019081526020016000209080519060200190610a57929190610c75565b5060038054806001018281610a6c9190610cf5565b9160005260206000209001600085909190916101000a81548173ffffffffffffffffffffffffffffffffffffffff021916908373ffffffffffffffffffffffffffffffffffffffff160217905550508073ffffffffffffffffffffffffffffffffffffffff1663e07c60e16040518163ffffffff167c0100000000000000000000000000000000000000000000000000000000028152600401600060405180830381600087803b1515610b1e57600080fd5b6102c65a03f11515610b2f57600080fd5b505050505050565b610b3f610d21565b6003805480602002602001604051908101604052809291908181526020018280548015610bc157602002820191906000526020600020905b8160009054906101000a900473ffffffffffffffffffffffffffffffffffffffff1673ffffffffffffffffffffffffffffffffffffffff1681526020019060010190808311610b77575b5050505050905090565b818160019190610bdc929190610bf5565b505050565b602060405190810160405280600081525090565b828054600181600116156101000203166002900490600052602060002090601f016020900481019282601f10610c3657803560ff1916838001178555610c64565b82800160010185558215610c64579182015b82811115610c63578235825591602001919060010190610c48565b5b509050610c719190610d35565b5090565b828054600181600116156101000203166002900490600052602060002090601f016020900481019282601f10610cb657805160ff1916838001178555610ce4565b82800160010185558215610ce4579182015b82811115610ce3578251825591602001919060010190610cc8565b5b509050610cf19190610d35565b5090565b815481835581811511610d1c57818360005260206000209182019101610d1b9190610d35565b5b505050565b602060405190810160405280600081525090565b610d5791905b80821115610d53576000816000905550600101610d3b565b5090565b905600a165627a7a7230582066d6b69ae0cfdf1ad9c2b42be76e1860f4231867b273c288715519540405346f0029",
  "source": "pragma solidity ^0.4.19;\n\nimport \"./Pool.sol\";\n\ncontract Node {\n  string public data; //encrypted data with the NODE'S public key\n  string public publicData;\n\n  address owner;\n  address [] poolList;\n\n  mapping (address=>int) status; // 0 = not available, 1 = approved, 2 = rejected, 3 = pending\n  mapping (address=>string) poolData; //encrypted data with the POOL'S public key\n\n  function Node(address _owner) public {\n    owner = _owner;\n    data = '';\n    publicData = '';\n  }\n\n  function setData(string _data) external {\n    require(msg.sender == owner);\n    data = _data;\n  }\n\n  function setPublicData(string _publicData) external {\n    publicData = _publicData;\n  }\n\n  function setStatus(int _status) external {\n    status[msg.sender] = _status;\n  }\n\n  function getStatus(address _pool) public view returns(int) {\n    require(msg.sender == _pool || msg.sender == owner);\n    return status[_pool];\n  }\n\n  function getPoolData(address _pool) public view returns(string) {\n    return poolData[_pool];\n  }\n\n  function getPoolList() public view returns(address[]) {\n    return poolList;\n  }\n\n  /**\n   * change data provided to pool\n   *\n   * @param _data new data\n   */\n  function changePoolData(address _pool, string _data) public {\n    require(msg.sender == owner);\n    poolData[_pool] = _data;\n  }\n\n  /**\n   * Apply to be a node of a pool\n   *\n   * @param _pool address of pool you are applying to\n   * @param _data hello\n   */\n  function applyToPool(address _pool, string _data) public {\n    require(msg.sender == owner);\n    require(status[_pool] == 0);\n\n    Pool p = Pool(_pool);\n\n    status[_pool] = 3;\n    poolData[_pool] = _data;\n    poolList.push(_pool);\n\n    p.addNode();\n  }\n}\n",
  "sourcePath": "/home/nate/Developer/projects/gladius-contracts/contracts/Node.sol",
  "compiler": {
    "name": "solc",
    "version": "0.4.19+commit.c4cbbb05.Emscripten.clang"
  },
  "schemaVersion": "1.0.1",
  "updatedAt": "2018-03-28T17:05:38.689Z"
}