{
  "contractName": "Pool",
  "abi": [
    {
      "constant": false,
      "inputs": [
        {
          "name": "_amount",
          "type": "uint256"
        }
      ],
      "name": "work",
      "outputs": [
        {
          "name": "",
          "type": "bool"
        }
      ],
      "payable": false,
      "stateMutability": "nonpayable",
      "type": "function"
    },
    {
      "constant": true,
      "inputs": [],
      "name": "publicKey",
      "outputs": [
        {
          "name": "",
          "type": "string"
        }
      ],
      "payable": false,
      "stateMutability": "view",
      "type": "function"
    },
    {
      "constant": true,
      "inputs": [],
      "name": "data",
      "outputs": [
        {
          "name": "",
          "type": "string"
        }
      ],
      "payable": false,
      "stateMutability": "view",
      "type": "function"
    },
    {
      "constant": true,
      "inputs": [],
      "name": "publicData",
      "outputs": [
        {
          "name": "",
          "type": "string"
        }
      ],
      "payable": false,
      "stateMutability": "view",
      "type": "function"
    },
    {
      "constant": true,
      "inputs": [],
      "name": "balance",
      "outputs": [
        {
          "name": "owed",
          "type": "uint256"
        },
        {
          "name": "total",
          "type": "uint256"
        },
        {
          "name": "completed",
          "type": "uint256"
        },
        {
          "name": "paid",
          "type": "uint256"
        }
      ],
      "payable": false,
      "stateMutability": "view",
      "type": "function"
    },
    {
      "constant": false,
      "inputs": [
        {
          "name": "_amount",
          "type": "uint256"
        }
      ],
      "name": "pay",
      "outputs": [
        {
          "name": "",
          "type": "bool"
        }
      ],
      "payable": false,
      "stateMutability": "nonpayable",
      "type": "function"
    },
    {
      "constant": false,
      "inputs": [
        {
          "name": "_amount",
          "type": "uint256"
        }
      ],
      "name": "allocateFunds",
      "outputs": [
        {
          "name": "",
          "type": "bool"
        }
      ],
      "payable": false,
      "stateMutability": "nonpayable",
      "type": "function"
    },
    {
      "inputs": [
        {
          "name": "_publicKey",
          "type": "string"
        },
        {
          "name": "_owner",
          "type": "address"
        }
      ],
      "payable": false,
      "stateMutability": "nonpayable",
      "type": "constructor"
    },
    {
      "constant": false,
      "inputs": [
        {
          "name": "_data",
          "type": "string"
        }
      ],
      "name": "setData",
      "outputs": [],
      "payable": false,
      "stateMutability": "nonpayable",
      "type": "function"
    },
    {
      "constant": false,
      "inputs": [
        {
          "name": "_publicData",
          "type": "string"
        }
      ],
      "name": "setPublicData",
      "outputs": [],
      "payable": false,
      "stateMutability": "nonpayable",
      "type": "function"
    },
    {
      "constant": true,
      "inputs": [
        {
          "name": "_user",
          "type": "address"
        }
      ],
      "name": "getBalanceStructFor",
      "outputs": [
        {
          "name": "",
          "type": "uint256"
        },
        {
          "name": "",
          "type": "uint256"
        },
        {
          "name": "",
          "type": "uint256"
        },
        {
          "name": "",
          "type": "uint256"
        }
      ],
      "payable": false,
      "stateMutability": "view",
      "type": "function"
    },
    {
      "constant": true,
      "inputs": [
        {
          "name": "_user",
          "type": "address"
        }
      ],
      "name": "getTotalBalanceFor",
      "outputs": [
        {
          "name": "",
          "type": "uint256"
        }
      ],
      "payable": false,
      "stateMutability": "view",
      "type": "function"
    },
    {
      "constant": true,
      "inputs": [
        {
          "name": "_user",
          "type": "address"
        }
      ],
      "name": "getOwedBalanceFor",
      "outputs": [
        {
          "name": "",
          "type": "uint256"
        }
      ],
      "payable": false,
      "stateMutability": "view",
      "type": "function"
    },
    {
      "constant": false,
      "inputs": [
        {
          "name": "_client",
          "type": "address"
        },
        {
          "name": "_amount",
          "type": "uint256"
        }
      ],
      "name": "allocateFundsFrom",
      "outputs": [
        {
          "name": "",
          "type": "bool"
        }
      ],
      "payable": false,
      "stateMutability": "nonpayable",
      "type": "function"
    },
    {
      "constant": false,
      "inputs": [
        {
          "name": "_node",
          "type": "address"
        },
        {
          "name": "_client",
          "type": "address"
        },
        {
          "name": "_amount",
          "type": "uint256"
        }
      ],
      "name": "logWorkFrom",
      "outputs": [
        {
          "name": "",
          "type": "bool"
        }
      ],
      "payable": false,
      "stateMutability": "nonpayable",
      "type": "function"
    },
    {
      "constant": false,
      "inputs": [
        {
          "name": "_node",
          "type": "address"
        },
        {
          "name": "_amount",
          "type": "uint256"
        }
      ],
      "name": "payout",
      "outputs": [
        {
          "name": "",
          "type": "bool"
        }
      ],
      "payable": false,
      "stateMutability": "nonpayable",
      "type": "function"
    },
    {
      "constant": true,
      "inputs": [],
      "name": "getNodeList",
      "outputs": [
        {
          "name": "",
          "type": "address[]"
        }
      ],
      "payable": false,
      "stateMutability": "view",
      "type": "function"
    },
    {
      "constant": true,
      "inputs": [],
      "name": "getClientList",
      "outputs": [
        {
          "name": "",
          "type": "address[]"
        }
      ],
      "payable": false,
      "stateMutability": "view",
      "type": "function"
    },
    {
      "constant": false,
      "inputs": [],
      "name": "addNode",
      "outputs": [],
      "payable": false,
      "stateMutability": "nonpayable",
      "type": "function"
    },
    {
      "constant": false,
      "inputs": [],
      "name": "addClient",
      "outputs": [],
      "payable": false,
      "stateMutability": "nonpayable",
      "type": "function"
    },
    {
      "constant": false,
      "inputs": [
        {
          "name": "_node",
          "type": "address"
        }
      ],
      "name": "acceptNode",
      "outputs": [],
      "payable": false,
      "stateMutability": "nonpayable",
      "type": "function"
    },
    {
      "constant": false,
      "inputs": [
        {
          "name": "_client",
          "type": "address"
        }
      ],
      "name": "acceptClient",
      "outputs": [],
      "payable": false,
      "stateMutability": "nonpayable",
      "type": "function"
    },
    {
      "constant": false,
      "inputs": [
        {
          "name": "_node",
          "type": "address"
        }
      ],
      "name": "rejectNode",
      "outputs": [],
      "payable": false,
      "stateMutability": "nonpayable",
      "type": "function"
    },
    {
      "constant": false,
      "inputs": [
        {
          "name": "_client",
          "type": "address"
        }
      ],
      "name": "rejectClient",
      "outputs": [],
      "payable": false,
      "stateMutability": "nonpayable",
      "type": "function"
    }
  ],
  "bytecode": "0x606060405234156200001057600080fd5b60405162001f9d38038062001f9d83398101604052808051820191906020018051906020019091905050816004908051906020019062000052929190620000ee565b5080600760006101000a81548173ffffffffffffffffffffffffffffffffffffffff021916908373ffffffffffffffffffffffffffffffffffffffff160217905550602060405190810160405280600081525060059080519060200190620000bc929190620000ee565b50602060405190810160405280600081525060069080519060200190620000e5929190620000ee565b5050506200019d565b828054600181600116156101000203166002900490600052602060002090601f016020900481019282601f106200013157805160ff191683800117855562000162565b8280016001018555821562000162579182015b828111156200016157825182559160200191906001019062000144565b5b50905062000171919062000175565b5090565b6200019a91905b80821115620001965760008160009055506001016200017c565b5090565b90565b611df080620001ad6000396000f300606060405260043610610133576000357c0100000000000000000000000000000000000000000000000000000000900463ffffffff168063117de2fd1461013857806332a6a37614610192578063400008cf1461020b57806347064d6a14610244578063533aa4741461027257806353f3b713146102875780635858d161146102f157806363ffab311461032c57806373d4a13a146103ba5780637cc62dd7146104485780639a76717a146104aa578063a1f2e9bf14610538578063a3eb944414610592578063a8f9868e146105cb578063ac28949c14610618578063aef2a61814610665578063b69ef8a81461069e578063c290d691146106dc578063c9f8cc6714610717578063d644f76714610752578063e07c60e1146107bc578063e086f581146107d1578063fddbd2751461080a575b600080fd5b341561014357600080fd5b610178600480803573ffffffffffffffffffffffffffffffffffffffff16906020019091908035906020019091905050610838565b604051808215151515815260200191505060405180910390f35b341561019d57600080fd5b6101f1600480803573ffffffffffffffffffffffffffffffffffffffff1690602001909190803573ffffffffffffffffffffffffffffffffffffffff16906020019091908035906020019091905050610949565b604051808215151515815260200191505060405180910390f35b341561021657600080fd5b610242600480803573ffffffffffffffffffffffffffffffffffffffff16906020019091905050610b3f565b005b341561024f57600080fd5b61027060048080359060200190820180359060200191909192905050610cf3565b005b341561027d57600080fd5b610285610d65565b005b341561029257600080fd5b61029a610f1a565b6040518080602001828103825283818151815260200191508051906020019060200280838360005b838110156102dd5780820151818401526020810190506102c2565b505050509050019250505060405180910390f35b34156102fc57600080fd5b6103126004808035906020019091905050610fae565b604051808215151515815260200191505060405180910390f35b341561033757600080fd5b61033f611007565b6040518080602001828103825283818151815260200191508051906020019080838360005b8381101561037f578082015181840152602081019050610364565b50505050905090810190601f1680156103ac5780820380516001836020036101000a031916815260200191505b509250505060405180910390f35b34156103c557600080fd5b6103cd6110a5565b6040518080602001828103825283818151815260200191508051906020019080838360005b8381101561040d5780820151818401526020810190506103f2565b50505050905090810190601f16801561043a5780820380516001836020036101000a031916815260200191505b509250505060405180910390f35b341561045357600080fd5b61047f600480803573ffffffffffffffffffffffffffffffffffffffff16906020019091905050611143565b6040518085815260200184815260200183815260200182815260200194505050505060405180910390f35b34156104b557600080fd5b6104bd611264565b6040518080602001828103825283818151815260200191508051906020019080838360005b838110156104fd5780820151818401526020810190506104e2565b50505050905090810190601f16801561052a5780820380516001836020036101000a031916815260200191505b509250505060405180910390f35b341561054357600080fd5b610578600480803573ffffffffffffffffffffffffffffffffffffffff16906020019091908035906020019091905050611302565b604051808215151515815260200191505060405180910390f35b341561059d57600080fd5b6105c9600480803573ffffffffffffffffffffffffffffffffffffffff169060200190919050506113f9565b005b34156105d657600080fd5b610602600480803573ffffffffffffffffffffffffffffffffffffffff169060200190919050506115ad565b6040518082815260200191505060405180910390f35b341561062357600080fd5b61064f600480803573ffffffffffffffffffffffffffffffffffffffff169060200190919050506115f9565b6040518082815260200191505060405180910390f35b341561067057600080fd5b61069c600480803573ffffffffffffffffffffffffffffffffffffffff1690602001909190505061163a565b005b34156106a957600080fd5b6106b16117ee565b6040518085815260200184815260200183815260200182815260200194505050505060405180910390f35b34156106e757600080fd5b6106fd600480803590602001909190505061180c565b604051808215151515815260200191505060405180910390f35b341561072257600080fd5b6107386004808035906020019091905050611852565b604051808215151515815260200191505060405180910390f35b341561075d57600080fd5b610765611870565b6040518080602001828103825283818151815260200191508051906020019060200280838360005b838110156107a857808201518184015260208101905061078d565b505050509050019250505060405180910390f35b34156107c757600080fd5b6107cf611904565b005b34156107dc57600080fd5b610808600480803573ffffffffffffffffffffffffffffffffffffffff16906020019091905050611ab9565b005b341561081557600080fd5b61083660048080359060200190820180359060200191909192905050611c6d565b005b600080600c60008573ffffffffffffffffffffffffffffffffffffffff1673ffffffffffffffffffffffffffffffffffffffff16815260200190815260200160002090506108858361180c565b80156108945750806000015483115b1561089e57600080fd5b608060405190810160405280848360000154038152602001826001015481526020018260020154815260200184836003015401815250600c60008673ffffffffffffffffffffffffffffffffffffffff1673ffffffffffffffffffffffffffffffffffffffff16815260200190815260200160002060008201518160000155602082015181600101556040820151816002015560608201518160030155905050600191505092915050565b6000806000600c60008773ffffffffffffffffffffffffffffffffffffffff1673ffffffffffffffffffffffffffffffffffffffff1681526020019081526020016000209150600c60008673ffffffffffffffffffffffffffffffffffffffff1673ffffffffffffffffffffffffffffffffffffffff16815260200190815260200160002090506109d984610fae565b80156109e85750806001015484115b156109f257600080fd5b608060405190810160405280858460000154018152602001836001015481526020018584600201540181526020018360030154815250600c60008873ffffffffffffffffffffffffffffffffffffffff1673ffffffffffffffffffffffffffffffffffffffff16815260200190815260200160002060008201518160000155602082015181600101556040820151816002015560608201518160030155905050608060405190810160405280826000015481526020018583600101540381526020018583600201540181526020018260030154815250600c60008773ffffffffffffffffffffffffffffffffffffffff1673ffffffffffffffffffffffffffffffffffffffff168152602001908152602001600020600082015181600001556020820151816001015560408201518160020155606082015181600301559050506001925050509392505050565b6000600760009054906101000a900473ffffffffffffffffffffffffffffffffffffffff1673ffffffffffffffffffffffffffffffffffffffff163373ffffffffffffffffffffffffffffffffffffffff16141515610b9d57600080fd5b81905060038173ffffffffffffffffffffffffffffffffffffffff166330ccebb5306000604051602001526040518263ffffffff167c0100000000000000000000000000000000000000000000000000000000028152600401808273ffffffffffffffffffffffffffffffffffffffff1673ffffffffffffffffffffffffffffffffffffffff168152602001915050602060405180830381600087803b1515610c4557600080fd5b6102c65a03f11515610c5657600080fd5b50505060405180519050141515610c6c57600080fd5b8073ffffffffffffffffffffffffffffffffffffffff166317bc269b60016040518263ffffffff167c010000000000000000000000000000000000000000000000000000000002815260040180828152602001915050600060405180830381600087803b1515610cdb57600080fd5b6102c65a03f11515610cec57600080fd5b5050505050565b600760009054906101000a900473ffffffffffffffffffffffffffffffffffffffff1673ffffffffffffffffffffffffffffffffffffffff163373ffffffffffffffffffffffffffffffffffffffff16141515610d4f57600080fd5b818160059190610d60929190611cdf565b505050565b600033905060038173ffffffffffffffffffffffffffffffffffffffff166330ccebb5306000604051602001526040518263ffffffff167c0100000000000000000000000000000000000000000000000000000000028152600401808273ffffffffffffffffffffffffffffffffffffffff1673ffffffffffffffffffffffffffffffffffffffff168152602001915050602060405180830381600087803b1515610e0f57600080fd5b6102c65a03f11515610e2057600080fd5b50505060405180519050141515610e3657600080fd5b60088054806001018281610e4a9190611d5f565b9160005260206000209001600033909190916101000a81548173ffffffffffffffffffffffffffffffffffffffff021916908373ffffffffffffffffffffffffffffffffffffffff1602179055505080600a60003373ffffffffffffffffffffffffffffffffffffffff1673ffffffffffffffffffffffffffffffffffffffff16815260200190815260200160002060006101000a81548173ffffffffffffffffffffffffffffffffffffffff021916908373ffffffffffffffffffffffffffffffffffffffff16021790555050565b610f22611d8b565b6009805480602002602001604051908101604052809291908181526020018280548015610fa457602002820191906000526020600020905b8160009054906101000a900473ffffffffffffffffffffffffffffffffffffffff1673ffffffffffffffffffffffffffffffffffffffff1681526020019060010190808311610f5a575b5050505050905090565b60008060010154821115610fc55760009050611002565b8160006001016000828254039250508190555081600080016000828254019250508190555081600060020160008282540192505081905550600190505b919050565b60048054600181600116156101000203166002900480601f01602080910402602001604051908101604052809291908181526020018280546001816001161561010002031660029004801561109d5780601f106110725761010080835404028352916020019161109d565b820191906000526020600020905b81548152906001019060200180831161108057829003601f168201915b505050505081565b60058054600181600116156101000203166002900480601f01602080910402602001604051908101604052809291908181526020018280546001816001161561010002031660029004801561113b5780601f106111105761010080835404028352916020019161113b565b820191906000526020600020905b81548152906001019060200180831161111e57829003601f168201915b505050505081565b600080600080600c60008673ffffffffffffffffffffffffffffffffffffffff1673ffffffffffffffffffffffffffffffffffffffff16815260200190815260200160002060000154600c60008773ffffffffffffffffffffffffffffffffffffffff1673ffffffffffffffffffffffffffffffffffffffff16815260200190815260200160002060010154600c60008873ffffffffffffffffffffffffffffffffffffffff1673ffffffffffffffffffffffffffffffffffffffff16815260200190815260200160002060020154600c60008973ffffffffffffffffffffffffffffffffffffffff1673ffffffffffffffffffffffffffffffffffffffff1681526020019081526020016000206003015493509350935093509193509193565b60068054600181600116156101000203166002900480601f0160208091040260200160405190810160405280929190818152602001828054600181600116156101000203166002900480156112fa5780601f106112cf576101008083540402835291602001916112fa565b820191906000526020600020905b8154815290600101906020018083116112dd57829003601f168201915b505050505081565b60008061130e83611852565b50600c60008573ffffffffffffffffffffffffffffffffffffffff1673ffffffffffffffffffffffffffffffffffffffff168152602001908152602001600020905060806040519081016040528082600001548152602001848360010154018152602001826002015481526020018260030154815250600c60008673ffffffffffffffffffffffffffffffffffffffff1673ffffffffffffffffffffffffffffffffffffffff16815260200190815260200160002060008201518160000155602082015181600101556040820151816002015560608201518160030155905050600191505092915050565b6000600760009054906101000a900473ffffffffffffffffffffffffffffffffffffffff1673ffffffffffffffffffffffffffffffffffffffff163373ffffffffffffffffffffffffffffffffffffffff1614151561145757600080fd5b81905060038173ffffffffffffffffffffffffffffffffffffffff166330ccebb5306000604051602001526040518263ffffffff167c0100000000000000000000000000000000000000000000000000000000028152600401808273ffffffffffffffffffffffffffffffffffffffff1673ffffffffffffffffffffffffffffffffffffffff168152602001915050602060405180830381600087803b15156114ff57600080fd5b6102c65a03f1151561151057600080fd5b5050506040518051905014151561152657600080fd5b8073ffffffffffffffffffffffffffffffffffffffff166317bc269b60016040518263ffffffff167c010000000000000000000000000000000000000000000000000000000002815260040180828152602001915050600060405180830381600087803b151561159557600080fd5b6102c65a03f115156115a657600080fd5b5050505050565b6000600c60008373ffffffffffffffffffffffffffffffffffffffff1673ffffffffffffffffffffffffffffffffffffffff168152602001908152602001600020600101549050919050565b6000600c60008373ffffffffffffffffffffffffffffffffffffffff1673ffffffffffffffffffffffffffffffffffffffff16815260200190815250919050565b6000600760009054906101000a900473ffffffffffffffffffffffffffffffffffffffff1673ffffffffffffffffffffffffffffffffffffffff163373ffffffffffffffffffffffffffffffffffffffff1614151561169857600080fd5b81905060038173ffffffffffffffffffffffffffffffffffffffff166330ccebb5306000604051602001526040518263ffffffff167c0100000000000000000000000000000000000000000000000000000000028152600401808273ffffffffffffffffffffffffffffffffffffffff1673ffffffffffffffffffffffffffffffffffffffff168152602001915050602060405180830381600087803b151561174057600080fd5b6102c65a03f1151561175157600080fd5b5050506040518051905014151561176757600080fd5b8073ffffffffffffffffffffffffffffffffffffffff166317bc269b60026040518263ffffffff167c010000000000000000000000000000000000000000000000000000000002815260040180828152602001915050600060405180830381600087803b15156117d657600080fd5b6102c65a03f115156117e757600080fd5b5050505050565b60008060000154908060010154908060020154908060030154905084565b60008060000154821115611823576000905061184d565b81600080016000828254039250508190555081600060030160008282540192505081905550600190505b919050565b60008160006001016000828254019250508190555060019050919050565b611878611d8b565b60088054806020026020016040519081016040528092919081815260200182805480156118fa57602002820191906000526020600020905b8160009054906101000a900473ffffffffffffffffffffffffffffffffffffffff1673ffffffffffffffffffffffffffffffffffffffff16815260200190600101908083116118b0575b5050505050905090565b600033905060038173ffffffffffffffffffffffffffffffffffffffff166330ccebb5306000604051602001526040518263ffffffff167c0100000000000000000000000000000000000000000000000000000000028152600401808273ffffffffffffffffffffffffffffffffffffffff1673ffffffffffffffffffffffffffffffffffffffff168152602001915050602060405180830381600087803b15156119ae57600080fd5b6102c65a03f115156119bf57600080fd5b505050604051805190501415156119d557600080fd5b600980548060010182816119e99190611d5f565b9160005260206000209001600033909190916101000a81548173ffffffffffffffffffffffffffffffffffffffff021916908373ffffffffffffffffffffffffffffffffffffffff1602179055505080600b60003373ffffffffffffffffffffffffffffffffffffffff1673ffffffffffffffffffffffffffffffffffffffff16815260200190815260200160002060006101000a81548173ffffffffffffffffffffffffffffffffffffffff021916908373ffffffffffffffffffffffffffffffffffffffff16021790555050565b6000600760009054906101000a900473ffffffffffffffffffffffffffffffffffffffff1673ffffffffffffffffffffffffffffffffffffffff163373ffffffffffffffffffffffffffffffffffffffff16141515611b1757600080fd5b81905060038173ffffffffffffffffffffffffffffffffffffffff166330ccebb5306000604051602001526040518263ffffffff167c0100000000000000000000000000000000000000000000000000000000028152600401808273ffffffffffffffffffffffffffffffffffffffff1673ffffffffffffffffffffffffffffffffffffffff168152602001915050602060405180830381600087803b1515611bbf57600080fd5b6102c65a03f11515611bd057600080fd5b50505060405180519050141515611be657600080fd5b8073ffffffffffffffffffffffffffffffffffffffff166317bc269b60026040518263ffffffff167c010000000000000000000000000000000000000000000000000000000002815260040180828152602001915050600060405180830381600087803b1515611c5557600080fd5b6102c65a03f11515611c6657600080fd5b5050505050565b600760009054906101000a900473ffffffffffffffffffffffffffffffffffffffff1673ffffffffffffffffffffffffffffffffffffffff163373ffffffffffffffffffffffffffffffffffffffff16141515611cc957600080fd5b818160069190611cda929190611cdf565b505050565b828054600181600116156101000203166002900490600052602060002090601f016020900481019282601f10611d2057803560ff1916838001178555611d4e565b82800160010185558215611d4e579182015b82811115611d4d578235825591602001919060010190611d32565b5b509050611d5b9190611d9f565b5090565b815481835581811511611d8657818360005260206000209182019101611d859190611d9f565b5b505050565b602060405190810160405280600081525090565b611dc191905b80821115611dbd576000816000905550600101611da5565b5090565b905600a165627a7a72305820957991e65b8424f90227373ecf672467289f3fb5fa2aa44504c9fe07d74ed5180029",
  "source": "pragma solidity ^0.4.19;\n\nimport \"./Node.sol\";\nimport \"./Client.sol\";\nimport \"./AbstractBalance.sol\";\n//ALL DATA VARIABLES ARE SUBJECT TO CHANGE (STC)\n\ncontract Pool is AbstractBalance {\n  string public publicKey;                           //a public RSA key to encrypt against\n  string public data;\n  string public publicData;\n\n  address private owner;                             //msg.sender = marketplace; therefore we need to pass in an owner manually\n  address[] private client_list;                     //list of client proposals\n  address[] private node_list;                       //list of node proposals\n\n  mapping (address => Client) private clients;       //client requesting pool for protection/cdn\n  mapping (address => Node) private nodes;           //node information (proposal)\n  mapping (address => Balance) userBalance;          //maps a client's address to a balance struct\n\n  /**\n   * Create new Pool and assign owner\n   *\n   * Data is assigned owner and uses the owner's public key\n   * @param _publicKey Owner's public RSA key to encrypt against\n   * @param _owner Address of the owner\n   */\n  function Pool(string _publicKey, address _owner) public {\n    publicKey = _publicKey;\n    owner = _owner;\n    data = '';\n    publicData = '';\n  }\n\n  function setData(string _data) external {\n    require(msg.sender == owner);\n    data = _data;\n  }\n\n  function setPublicData(string _publicData) external {\n    require(msg.sender == owner);\n    publicData = _publicData;\n  }\n\n  /**\n   * Makes and returns the Balance struct for a given user\n   *\n   * @param _user User address to query userBalance array\n   * @return (uint,uint,uint,uint)\n   */\n  function getBalanceStructFor(address _user) public view returns (uint,uint,uint,uint) {\n    return (userBalance[_user].owed, userBalance[_user].total, userBalance[_user].completed, userBalance[_user].paid);\n  }\n\n  /**\n   * Returns the total from a given users balance\n   *\n   * @param _user User address to query userBalance[_user].total\n   * @return (uint)\n   */\n  function getTotalBalanceFor(address _user) public view returns (uint) {\n    return userBalance[_user].total;\n  }\n\n  /**\n   * Returns the owed balance from a given users balance\n   *\n   * @param _user User address to query userBalance[_user].owed\n   * @return (uint)\n   */\n  function getOwedBalanceFor(address _user) public view returns (uint) {\n    userBalance[_user].owed;\n  }\n\n  /**\n   * Allocates a clients funds into the Pools balance and the users balance\n   *\n   * @param _client address\n   * @param _amount uint\n   * @return bool TODO run through checks to ensure transfer logic passes\n   */\n  function allocateFundsFrom(address _client, uint _amount) public returns (bool) {\n    allocateFunds(_amount);\n\n    Balance storage _userBalance = userBalance[_client];\n\n    userBalance[_client] = Balance({\n      owed : _userBalance.owed,\n      total : _userBalance.total + _amount,\n      completed : _userBalance.completed,\n      paid : _userBalance.paid\n    });\n\n    return true;\n  }\n\n  /**\n   * Records an amount of work done by a node to the balance\n   *\n   * @param _node Node that completed the work\n   * @param _client Client that will be billed for the nodes work\n   * @param _amount Amount of work completed\n   */\n  function logWorkFrom(address _node, address _client, uint _amount) public returns (bool) {\n    Balance storage _nodeBalance = userBalance[_node];\n    Balance storage _clientBalance = userBalance[_client];\n\n    if (work(_amount) && _amount > _clientBalance.total) {\n      revert();\n    }\n\n    // Node Balance\n    userBalance[_node] = Balance({\n      owed : _nodeBalance.owed + _amount,\n      total : _nodeBalance.total,\n      completed : _nodeBalance.completed + _amount,\n      paid : _nodeBalance.paid\n    });\n\n    // Client Balance\n    userBalance[_client] = Balance({\n      owed : _clientBalance.owed,\n      total : _clientBalance.total - _amount,\n      completed : _clientBalance.completed + _amount,\n      paid : _clientBalance.paid\n    });\n\n    return true;\n  }\n\n  /**\n   * Recalculates the balances of the pool and user after a payout\n   *\n   * @param _node Node that completed the work\n   * @param _amount Amount of work completed\n   * @return bool true if withdraw was successful\n   */\n  function payout(address _node, uint _amount) public returns (bool) {\n    Balance storage _nodeBalance = userBalance[_node];\n\n    if (pay(_amount) && _amount > _nodeBalance.owed) {\n      revert();\n    }\n\n    userBalance[_node] = Balance({\n      owed : _nodeBalance.owed - _amount,\n      total : _nodeBalance.total,\n      completed : _nodeBalance.completed,\n      paid : _nodeBalance.paid + _amount\n    });\n\n    return true;\n  }\n\n  function getNodeList() public view returns(address[]) {\n    return node_list;\n  }\n\n  function getClientList() public view returns(address[]) {\n    return client_list;\n  }\n\n  /**\n   * Add a node to the list of nodes only if it's applied\n   * called by the node contract durring applyToPool\n   *\n   */\n  function addNode() external {\n    Node _newNode = Node(msg.sender);\n    require(_newNode.getStatus(address(this)) == 3); //make sure the node has applied to this pool\n\n    node_list.push(msg.sender);\n    nodes[msg.sender] = _newNode;\n  }\n\n  /**\n   * Add a client to the list of clients only if it's applied\n   * called by the client contract durring applyToPool\n   *\n   */\n  function addClient() external {\n    Client _newClient = Client(msg.sender);\n    require(_newClient.getStatus(address(this)) == 3); //make sure the client has applied to this pool\n\n    client_list.push(msg.sender);\n    clients[msg.sender] = _newClient;\n  }\n\n  /**\n   * Accept a node\n   *\n   * @param _node address of the applying node\n   */\n  function acceptNode(address _node) public {\n    require(msg.sender == owner);\n    Node _applicant = Node(_node);\n    require(_applicant.getStatus(address(this)) == 3);\n    _applicant.setStatus(1);\n  }\n\n  /**\n   * Accept a client\n   *\n   * @param _client address of the applying node\n   */\n  function acceptClient(address _client) public {\n    require(msg.sender == owner);\n    Client _applicant = Client(_client);\n    require(_applicant.getStatus(address(this)) == 3);\n    _applicant.setStatus(1);\n  }\n\n  /**\n   * Remove a member\n   * Must be the owner\n   * @param _node address to be removed\n   */\n  function rejectNode(address _node) public {\n    require(msg.sender == owner);\n    Node _applicant = Node(_node);\n    require(_applicant.getStatus(address(this)) == 3);\n    _applicant.setStatus(2);\n  }\n\n  /**\n  * Remove a member\n  * Must be the owner\n  * @param _client address to be removed\n  */\n  function rejectClient(address _client) public {\n    require(msg.sender == owner);\n    Client _applicant = Client(_client);\n    require(_applicant.getStatus(address(this)) == 3);\n    _applicant.setStatus(2);\n  }\n}\n",
  "sourcePath": "/home/nate/Developer/projects/gladius-contracts/contracts/Pool.sol",
  "compiler": {
    "name": "solc",
    "version": "0.4.19+commit.c4cbbb05.Emscripten.clang"
  },
  "schemaVersion": "1.0.1",
  "updatedAt": "2018-03-29T17:26:37.621Z"
}